:10000000ECC000001BC1000019C1000017C10000B6
:1000100015C1000013C1000011C100000FC1000094
:100020000DC100000BC1000009C1000007C10000A4
:1000300005C1000003C1000001C10000FFC00000B5
:10004000FDC00000FBC00000F9C00000F7C00000C8
:10005000F5C00000F3C00000F1C000000C94F132C4
:10006000EDC000000C94C1350C94F735E7C00000DA
:10007000E5C00000E3C00000E1C00000DFC00000F8
:10008000DDC00000DBC00000D9C00000D7C0000008
:100090000C944D360C948336D1C000000C94D031B2
:1000A000CDC00000CBC00000C9C00000C7C0000028
:1000B000C5C00000C3C00000C1C00000BFC0000038
:1000C000BDC00000BBC000000C94402B0C94D9367E
:1000D0000C940F37B3C000000C9465370C949B3719
:1000E000ADC0000000000A0B02090C0D0E0807034A
:1000F00004010000000000000000000000000000FB
:1001000000000000000000000000000000000000EF
:1001100012111000000000000000000000000000AC
:100120000000000000000000000001021020200874
:100130000810204010204080020102010804020142
:1001400001020408102040808040201008040201B1
:10015000800402018040201008040201080402010A
:100160000102040810204080010204081020408091
:1001700005050505070508080808020202020A0A23
:100180000808040404040101010101010101030341
:10019000030303030303040707070C0C0C0C0C0CEC
:1001A0000C0C0202020206060606060606060B0BE9
:1001B0000B0B0B0B0B0B00002200250028002B0063
:1001C0002E003100340002010000050108010B017E
:1001D0003B2F2036AC363837C43711241FBECFEF43
:1001E000D1E2DEBFCDBF00E00CBF12E0A0E0B2E084
:1001F000E0E1F1E700E00BBF02C007900D92AA3DDD
:10020000B107D9F72BE0AAEDB2E001C01D92A039E9
:10021000B207E1F710E0CDEED0E000E006C0219794
:100220000109802FFE010E945538C83ED10780E0A9
:100230000807A9F70E94492C0C948638E1CECF928A
:10024000DF92EF92FF926B017C01C114D104E104B3
:10025000F10469F480910002811109C080910202C9
:10026000909103020E94AC2E81E080930002C601AF
:10027000880F991F880F991F80509E4FFF90EF9015
:10028000DF90CF900895009781F0FC01218121112A
:1002900004C040EA56E861E070E0FC01828193818D
:1002A0000E94BB2E90E080E0089588E090E00895E1
:1002B0004F925F926F927F928F929F92AF92BF9276
:1002C000CF92DF92EF92FF920F931F93CF93DF9322
:1002D0000097C9F1280139017A01EC01402F8A8188
:1002E0009B810E94392F8A819B81DC01ED91FC91D9
:1002F0000084F185E02D1995892B01F16701812C8E
:10030000912C54018A819B81DC01ED91FC91008448
:10031000F185E02D1995892B91F184149504A6049B
:10032000B70469F18A819B81DC01ED91FC91028423
:10033000F385E02D19958F3F9807C1F484E0F7010C
:1003400011928A95E9F788E090E0DF91CF911F91B3
:100350000F91FF90EF90DF90CF90BF90AF909F9064
:100360008F907F906F905F904F900895FFEF8F1A5E
:100370009F0AAF0ABF0AD6018D936D01C3CF90E0EB
:1003800080E0E3CF8F929F92AF92BF92CF92DF92A5
:10039000EF920F931F93CF93DF930097F1F06A01D1
:1003A000EC018A819B810E94BE2E8A819B81DC01A7
:1003B000ED91FC910280F381E02DA801B601199521
:1003C0008A819B8160E0E11001C061E00E94C82E3B
:1003D000882389F08250823088F088E090E0DF91B5
:1003E000CF911F910F91EF90DF90CF90BF90AF9082
:1003F0009F908F90089590E080E0F1CF84E090E0AE
:10040000EECF08958130910571F01CF4892B39F0FD
:1004100008958230910551F0039759F0089584EAC8
:1004200098E00C94613581E499E0FBCF8EED99E082
:10043000F8CF8BE79AE0F5CF8F929F92AF92BF9261
:10044000CF92DF92EF92FF926B017C010E943B33CF
:100450004B015C010E943B33681979098A099B09A9
:10046000C616D706E806F906A8F7FF90EF90DF90CA
:10047000CF90BF90AF909F908F9008950C943B3396
:1004800090E080E008950F931F93009709F489C0CE
:100490006115710509F485C000910C0210910D02DF
:1004A00020910E0230910F020E3F1F4F2F4F3F4FF2
:1004B00009F068C04FEF5FEFBA0140930C02509310
:1004C0000D0260930E0270930F0240910C02509146
:1004D0000D0260910E0270910F02DC011296ED91F7
:1004E000FC9180819181A281B38180934803909394
:1004F0004903A0934A03B0934B0384819581A6815D
:10050000B7818093440390934503A0934603B0932F
:10051000470380859185A285B3858093400390939E
:100520004103A0934203B093430384859585A68538
:10053000B78580933C0390933D03A0933E03B09313
:100540003F03109238031092390310923A0310922D
:100550003B030E943F0F84E69FE09093DB02809371
:10056000DA029093DD028093DC020E942E0E009747
:1005700031F421E030E030934D0320934C031F9180
:100580000F91089500910C0210910D0220910E021E
:1005900030910F02DB010D931D932D933C93139724
:1005A00094CF8FEF9FEFEBCF8F929F92AF92BF923E
:1005B000CF92DF92EF92FF921F93CF93DF934B0185
:1005C0005C0110914F0382E090E090934D03809383
:1005D0004C0381149104A104B10441F480914F03B0
:1005E000811104C080914E03C1E08111C0E0C12C93
:1005F000D12C760180914F03811106C080914E036A
:10060000811102C0CC23D9F083E090E090934D0398
:1006100080934C03CC2381F1CCE9DFEF111102C0B0
:100620000E94C812CE01DF91CF911F91FF90EF90F1
:10063000DF90CF90BF90AF909F908F9008956AE029
:1006400070E080E090E00E946C3380E1C80E87E2A9
:10065000D81EE11CF11C8FEF88169806A806B80674
:1006600031F0C1E08C149D04AE04BF0408F0C0E07A
:1006700080E00E94620EBECFD0E0C0E0CFCFCF922C
:10068000DF92EF92FF920F931F93CF93DF938F3FF1
:10069000910511F008F051C020914C0330914D03A9
:1006A0002330310539F020914C0330914D03213036
:1006B000310531F424E030E030934D0320934C03B6
:1006C0006A017B01EC0182309105A8F011E0AE01D6
:1006D000C701B6010E942D0EAB01BC01CE01112352
:1006E000F9F0DF91CF911F910F91FF90EF90DF9084
:1006F000CF900C94F1148C01000F111F06521D4F66
:10070000D8018D919C91892B09F30E94FB140297CB
:10071000E9F6D801ED91FC91CE011995182FD7CFAC
:100720000E94131590E080E0DF91CF911F910F910F
:10073000FF90EF90DF90CF9008958FEF9FEFF4CF71
:1007400080E00C94620ECF93DF9386E090E090936C
:100750004D0380934C030E94BB0EEC01EAEDF2E0E6
:1007600084E0DF011D928A95E9F70E9460121092E1
:100770004D0310924C03CE01DF91CF9108958091EB
:100780004E03089580913703089560930C0270938F
:100790000D0280930E0290930F0290E080E0089586
:1007A0004F925F926F927F928F929F92AF92BF9281
:1007B000CF92DF92EF92FF920F931F93CF93DF932D
:1007C000CDB7DEB72D970FB6F894DEBF0FBECDBF05
:1007D000C0900402D0900502E0900602F09007025B
:1007E000A701960160913C0B70913D0B80913E0BEF
:1007F00090913F0B0E94D22C882341F0C0923C0B79
:10080000D0923D0BE0923E0BF0923F0B8091400B5B
:10081000811104C033DE81E08093400B1092510BB4
:100820008BE38D87C12CEE24E39401E010E020E0FF
:1008300030E0AE01435F5F4F68E670E08091460BA9
:100840009091470B9FDD882389F01F8218861986B7
:100850001A861B861C869091520B91118CC0909128
:10086000510B91111DC08093510B1AC0CC24C3941D
:10087000E12C06E010E020E030E0AE014F5F5F4F7A
:1008800068E670E08091460B9091470B11DD86E0A1
:10089000FE013196DE01179601900D928A95E1F7DF
:1008A0006F817885762767277627072E000C880BBF
:1008B000990B0E94D82C4B015C0169857A857627BB
:1008C00067277627072E000C880B990B0E94D82CDF
:1008D0006B017C016B857C85762767277627072E41
:1008E000000C880B990B0E94D82C2B013C018091A5
:1008F000530B882309F443C01092740B1092750BAC
:100900001092760B1092770B1092780B1092790B55
:1009100010927A0B10927B0B10927C0B10927D0B35
:1009200010927E0B10927F0B83E48D87C12CEE24F6
:10093000E39401E010E020E030E0AE01435F5F4F60
:1009400068E670E08091460B9091470B1BDD882391
:1009500009F458C01F82188619861A861B861C86C1
:100960009091520B9111FEC09091510B911164C066
:100970008093510B61C081E08093530B91CF2AE0AB
:1009800038EE4CE151E4C501B4010E943B2D20E05A
:1009900030E040E858E30E943B2D6093740B709365
:1009A000750B8093760B9093770B2AE038EE4CE131
:1009B00051E4C701B6010E943B2D20E030E040E841
:1009C00058E30E943B2D6093780B7093790B8093D2
:1009D0007A0B90937B0B2AE038EE4CE151E4C30193
:1009E000B2010E943B2D20E030E040E858E30E9435
:1009F0003B2D60937C0B70937D0B80937E0B9093CB
:100A00007F0B92CFCC24C394E12C06E010E020E0D1
:100A100030E0AE014F5F5F4F68E670E08091460BBB
:100A20009091470B45DC86E0FE013196DE0117967A
:100A300001900D928A95E1F76F8178857627672777
:100A40007627072E000C880B990B0E94D82C4B019F
:100A50005C0169857A85762767277627072E000C43
:100A6000880B990B0E94D82C6B017C016B857C85CF
:100A7000762767277627072E000C880B990B0E9494
:100A8000D82C2B013C018091530B882309F46EC0B4
:100A90001092800B1092810B1092820B1092830B9C
:100AA0001092840B1092850B1092860B1092870B7C
:100AB0001092880B1092890B10928A0B10928B0B5C
:100AC00080E280938D0BC0900802D0900902E090E4
:100AD0000A02F0900B02A701960160911E0B709123
:100AE0001F0B8091200B9091210B0E94D22C882308
:100AF00041F0C0921E0BD0921F0BE092200BF0929F
:100B0000210B8091220B811104C0B8DC81E080931D
:100B1000220B1092330B8BE38D87C12CEE24E394D0
:100B200001E010E020E030E0AE01435F5F4F69E696
:100B300070E08091280B9091290B24DC882309F424
:100B400048C01F82188619861A861B861C869091BB
:100B5000340B9111C3C09091330B911154C0809309
:100B6000330B51C081E08093530B66CF20E030E01F
:100B70004AEF5BE3C501B4010E943B2D6093800BFB
:100B80007093810B8093820B9093830B20E030E075
:100B90004AEF5BE3C701B6010E943B2D6093840BD3
:100BA0007093850B8093860B9093870B20E030E049
:100BB0004AEF5BE3C301B2010E943B2D6093880BB7
:100BC0007093890B80938A0B90938B0B8091510BC0
:100BD00078CFCC24C394E12C06E010E020E030E094
:100BE000AE014F5F5F4F69E670E08091280B9091F6
:100BF000290B5EDB86E0FE013196DE01179601903F
:100C00000D928A95E1F76F81788576276727762799
:100C1000072E000C880B990B0E94D82C4B015C010D
:100C200069857A85762767277627072E000C880B3B
:100C3000990B0E94D82C6B017C016B857C857627F3
:100C400067277627072E000C880B990B0E94D82C5B
:100C50002B013C018091350B882309F443C010928D
:100C60005C0B10925D0B10925E0B10925F0B10925A
:100C7000600B1092610B1092620B1092630B10923A
:100C8000640B1092650B1092660B1092670B83E455
:100C90008D87C12CEE24E39401E010E020E030E0E9
:100CA000AE01435F5F4F69E670E08091280B909141
:100CB000290B68DB882309F458C01F82188619861F
:100CC0001A861B861C869091340B9111F0C090916E
:100CD000330B911164C08093330B61C081E080932A
:100CE000350B91CF2AE038EE4CE151E4C501B40157
:100CF0000E943B2D20E030E040E858E30E943B2D6D
:100D000060935C0B70935D0B80935E0B90935F0B15
:100D10002AE038EE4CE151E4C701B6010E943B2DB8
:100D200020E030E040E858E30E943B2D6093600BE8
:100D30007093610B8093620B9093630B2AE038EE03
:100D40004CE151E4C301B2010E943B2D20E030E0B0
:100D500040E858E30E943B2D6093640B7093650B51
:100D60008093660B9093670B92CFCC24C394E12CB5
:100D700006E010E020E030E0AE014F5F5F4F69E633
:100D800070E08091280B9091290B92DA86E0FE01A9
:100D90003196DE01179601900D928A95E1F76F81E9
:100DA0007885762767277627072E000C880B990B06
:100DB0000E94D82C4B015C0169857A8576276727CC
:100DC0007627072E000C880B990B0E94D82C6B01FC
:100DD0007C016B857C85762767277627072E000C9C
:100DE000880B990B0E94D82C2B013C018091350B6C
:100DF000882309F460C01092680B1092690B10925E
:100E00006A0B10926B0B10926C0B10926D0B109280
:100E10006E0B10926F0B1092700B1092710B109260
:100E2000720B1092730B80E280938C0B60910E0317
:100E300070910F0380911003909111036F5F7F4FAA
:100E40008F4F9F4F60930E0370930F038093100397
:100E5000909311030E94D62C9B01AC016091120368
:100E60007091130380911403909115030E943B2D00
:100E700060930A0370930B0380930C0390930D030C
:100E80002D960FB6F894DEBF0FBECDBFDF91CF9188
:100E90001F910F91FF90EF90DF90CF90BF90AF9098
:100EA0009F908F907F906F905F904F90089581E01A
:100EB0008093350B74CF20E030E04AEF5BE3C5014F
:100EC000B4010E943B2D6093680B7093690B809373
:100ED0006A0B90936B0B20E030E04AEF5BE3C701B5
:100EE000B6010E943B2D60936C0B70936D0B809349
:100EF0006E0B90936F0B20E030E04AEF5BE3C30191
:100F0000B2010E943B2D6093700B7093710B809324
:100F1000720B9093730B8091330B86CFCF92EF922D
:100F2000FF920F931F93CF93DF9300D01F921F92D6
:100F3000CDB7DEB780E090E0A0E2B1E48093160385
:100F400090931703A0931803B09319038AE097EDC9
:100F5000A3E2BCE38093120390931303A0931403C2
:100F6000B09315038CE299E9AAE4B7E68093F802FE
:100F70009093F902A093FA02B093FB0286E19CEBF6
:100F8000A8E6BAE68093FC029093FD02A093FE02CD
:100F9000B093FF0282E199E0A7E0B5EE80930003F1
:100FA00090930103A0930203B093030388EC90E0B5
:100FB000AFE5BBE68093040390930503A09306037B
:100FC000B093070388EE92E09093F7028093F602C5
:100FD0008EED92E09093E9028093E80285E392E03F
:100FE0009093DF028093DE029093E1028093E0020F
:100FF0009093E3028093E2029093E5028093E402EF
:101000009093E7028093E60288E093E09093ED02EC
:101010008093EC0288EF92E09093EB028093EA02D7
:101020008AE093E09093EF028093EE021092510BCE
:101030001092530B1092400B80E090E5A3ECB8E4C3
:1010400080934C0B90934D0BA0934E0BB0934F0B92
:101050001092420B1092430B1092440B1092450BCE
:101060001092470B1092460B1092410B1092360BC8
:101070008091040290910502A0910602B0910702AE
:1010800080933C0B90933D0BA0933E0BB0933F0B92
:1010900081E090E0A0E0B0E08093370B9093380BB4
:1010A000A093390BB0933A0BFF24F394F092520BB8
:1010B00050E040E060E070E0CB01C1D89093470B76
:1010C0008093460B40EA56E861E070E04093480B9D
:1010D0005093490B60934A0B70934B0BD4D880E824
:1010E0008A838BE6898389819A819C838B83C12C37
:1010F000E12C02E010E020E030E0AE014D5F5F4FF8
:1011000068E670E08091460B9091470B3BD98823AD
:1011100039F09091520B992309F451C3F092530B7B
:1011200061E070E080E090E087D91A8289819A813D
:101130009C838B83C12CE12C02E010E020E030E0A6
:10114000AE014D5F5F4F68E670E08091460B909175
:10115000470B18D9882341F09091520B992309F439
:1011600035C381E08093530B64E670E080E090E04B
:1011700063D985E78D83C12CEE24E39401E010E070
:1011800020E030E0AE014B5F5F4F68E670E0809199
:10119000460B9091470BF6D881118DC3CC24C39494
:1011A000E12C01E010E020E030E0AE014B5F5F4F4A
:1011B00068E670E08091460B9091470B79D89D814D
:1011C00081E0983609F080E08093500B983609F062
:1011D000FCC089E1898389819A819C838B83C12C9E
:1011E000E12C02E010E020E030E0AE014D5F5F4F07
:1011F00068E670E08091460B9091470BC3D8882336
:1012000041F09091520B992309F4ECC281E0809354
:10121000530B8CE18D83C12CEE24E39401E010E0AC
:1012200020E030E0AE014B5F5F4F68E670E08091F8
:10123000460B9091470BA6D8811148C3CC24C39488
:10124000E12C01E010E020E030E0AE014B5F5F4FA9
:1012500068E670E08091460B9091470B29D89D81FC
:10126000977E9A838CE1898389819A819C838B8381
:10127000C12CE12C02E010E020E030E0AE014D5F37
:101280005F4F68E670E08091460B9091470B7AD8EB
:10129000882341F09091520B992309F4AFC281E069
:1012A0008093530B8BE18D83C12CEE24E39401E0FA
:1012B00010E020E030E0AE014B5F5F4F68E670E089
:1012C0008091460B9091470B5DD881110AC3CC24C5
:1012D000C394E12C01E010E020E030E0AE014B5F70
:1012E0005F4F68E670E08091460B9091470B0E943B
:1012F00058019D81977E9A838BE1898389819A81A8
:101300009C838B83C12CE12C02E010E020E030E0D4
:10131000AE014D5F5F4F68E670E08091460B9091A3
:10132000470B30D8882341F09091520B992309F450
:1013300071C281E08093530B8AE18D83C12CEE242E
:10134000E39401E010E020E030E0AE014B5F5F4F3E
:1013500068E670E08091460B9091470B13D881119D
:10136000CBC2CC24C394E12C01E010E020E030E0BB
:10137000AE014B5F5F4F68E670E08091460B909145
:10138000470B0E9458019D81987F91609A838AE162
:10139000898389819A819C838B83C12CE12C02E013
:1013A00010E020E030E0AE014D5F5F4F68E670E096
:1013B0008091460B9091470B0E94C201882341F017
:1013C0009091520B992309F431C281E08093530B21
:1013D0001092520BFF24F394F0923B0B1092330BBC
:1013E0001092350B1092220B80E090E5A3ECB8E44C
:1013F00080932E0B90932F0BA093300BB093310B57
:101400001092240B1092250B1092260B1092270B92
:101410001092290B1092280B1092230B1092180B8C
:101420008091080290910902A0910A02B0910B02EA
:1014300080931E0B90931F0BA093200BB093210B56
:1014400081E090E0A0E0B0E08093190B90931A0B3C
:10145000A0931B0BB0931C0BF092340B50E040E0B8
:1014600060E070E0CB010E941F019093290B8093F4
:10147000280B40EA56E861E070E040932A0B509355
:101480002B0B60932C0B70932D0B0E94430180E873
:101490008A838BE6898389819A819C838B83C12C83
:1014A000E12C02E010E020E030E0AE014D5F5F4F44
:1014B00069E670E08091280B9091290B0E94C2018F
:1014C000882339F09091340B992309F4B6C1F09236
:1014D000350B61E070E080E090E00E941C021A820F
:1014E00089819A819C838B83C12CE12C02E010E0DE
:1014F00020E030E0AE014D5F5F4F69E670E0809123
:10150000280B9091290B0E94C201882341F09091F1
:10151000340B992309F498C181E08093350B64E67C
:1015200070E080E090E00E941C0285E78D83C12C72
:10153000EE24E39401E010E020E030E0AE014B5FE8
:101540005F4F69E670E08091280B9091290B0E9413
:10155000C2018111DCC1CC24C394E12C01E010E074
:1015600020E030E0AE014B5F5F4F69E670E08091B4
:10157000280B9091290B0E9458019D8181E098369B
:1015800009F080E08093320B983609F003C189E1BD
:10159000898389819A819C838B83C12CE12C02E011
:1015A00010E020E030E0AE014D5F5F4F69E670E093
:1015B0008091280B9091290B0E94C201882341F051
:1015C0009091340B992309F44BC181E08093350B42
:1015D0008CE18D83C12CEE24E39401E010E020E047
:1015E00030E0AE014B5F5F4F69E670E08091280B01
:1015F0009091290B0E94C201811194C1CC24C39403
:10160000E12C01E010E020E030E0AE014B5F5F4FE5
:1016100069E670E08091280B9091290B0E94580197
:101620009D81977E9A838CE1898389819A819C83AD
:101630008B83C12CE12C02E010E020E030E0AE0111
:101640004D5F5F4F69E670E08091280B9091290B08
:101650000E94C201882341F09091340B992309F430
:101660000BC181E08093350B8BE18D83C12CEE247F
:10167000E39401E010E020E030E0AE014B5F5F4F0B
:1016800069E670E08091280B9091290B0E94C201BD
:10169000811153C1CC24C394E12C01E010E020E07F
:1016A00030E0AE014B5F5F4F69E670E08091280B40
:1016B0009091290B0E9458019D81977E9A838BE11E
:1016C000898389819A819C838B83C12CE12C02E0E0
:1016D00010E020E030E0AE014D5F5F4F69E670E062
:1016E0008091280B9091290B0E94C201882341F020
:1016F0009091340B992309F4CBC081E08093350B92
:101700008AE18D83C12CEE24E39401E010E020E017
:1017100030E0AE014B5F5F4F69E670E08091280BCF
:101720009091290B0E94C201811112C1CC24C39453
:10173000E12C01E010E020E030E0AE014B5F5F4FB4
:1017400069E670E08091280B9091290B0E94580166
:101750009D81987F91609A838AE1898389819A81AA
:101760009C838B83C12CE12C02E010E020E030E070
:10177000AE014D5F5F4F69E670E08091280B90915C
:10178000290B0E94C201882341F09091340B9923C8
:1017900009F48AC081E08093350B1092340B81E00C
:1017A00080931D0B0F900F900F900F900F90DF9173
:1017B000CF911F910F91FF90EF90CF90089590914E
:1017C000510B9111ADCC8093510BAACC9091510B40
:1017D0009111CACC8093510BC7CC81E08093530BFD
:1017E00090E0EECC9091510B911113CD8093510B61
:1017F00010CD81E08093530B90E032CD9091510B4E
:10180000911150CD8093510B4DCD81E08093530BBE
:1018100090E070CD9091510B91118ECD8093510B32
:101820008BCD81E08093530B90E0AECD9091510B26
:101830009111CECD8093510BCBCD9091330B911163
:1018400048CE8093330B45CE9091330B911167CEE8
:101850008093330B64CE81E08093350B90E08ECE85
:101860009091330B9111B4CE8093330BB1CE81E0C4
:101870008093350B90E0D5CE9091330B9111F4CE3F
:101880008093330BF1CE81E08093350B90E015CF40
:101890009091330B911134CF8093330B31CF81E092
:1018A0008093350B90E055CF9091330B911175CF0C
:1018B0008093330B72CF9091520B91118ECF9091F8
:1018C000510B91118DCF8093510B7ACC9091520B8B
:1018D00091118FCF9091510B91118ECF8093510B1D
:1018E000BFCC9091520B911190CF9091510B9111CF
:1018F0008FCF8093510BFECC9091520B911191CFD1
:101900009091510B911190CF8093510B3DCD9091BF
:10191000340B9111A0CF9091330B91119FCF8093F5
:10192000330B2CCE9091340B9111A1CF9091330BAE
:101930009111A0CF8093330B74CE9091340B911101
:10194000A2CF9091330B9111A1CF8093330BB5CEE1
:101950009091340B9111A3CF9091330B9111A2CFA1
:101960008093330BF6CE8091360B811119C081E044
:101970008093360B8091370B9091380BA091390BE7
:10198000B0913A0B0197A105B10551F480913B0B41
:10199000882331F08091460B9091470B0E94010201
:1019A0008091410B81111BC081E08093410B80919C
:1019B000420B9091430BA091440BB091450B0197C2
:1019C000A105B10561F482E090E0A0E0B0E0809371
:1019D000420B9093430BA093440BB093450B809123
:1019E000180B811119C081E08093180B8091190B9D
:1019F00090911A0BA0911B0BB0911C0B0197A105A4
:101A0000B10551F480911D0B882331F08091280B92
:101A10009091290B0E9401028091230B81111BC020
:101A200081E08093230B8091240B9091250BA09152
:101A3000260BB091270B0197A105B10561F482E057
:101A400090E0A0E0B0E08093240B9093250BA0934E
:101A5000260BB093270B08954F925F926F927F925F
:101A60008F929F92AF92BF92CF92DF92EF92FF92AE
:101A70000F931F93F8944090270350902803609091
:101A8000290370902A03C0901B03D0901C03E090A0
:101A90001D03F0901E03452B09F0A4C09B01AC016F
:101AA000241935094609570929013A0100912303F0
:101AB00010912403209125033091260348015901F8
:101AC000840C951CA61CB71C80169106A206B306B2
:101AD000A0F400911F031091200320912103309165
:101AE00022030F5F1F4F2F4F3F4F00931F03109391
:101AF00020032093210330932203809223039092AA
:101B00002403A0922503B092260300911F03109195
:101B10002003209121033091220380922B03909285
:101B20002C03A0922D03B0922E0300932F03109349
:101B30003003209331033093320360932703709373
:101B400028038093290390932A03A0E1B7E2A3011D
:101B500092010E945D386C0D7D1D8E1D9F1D60934E
:101B60001B0370931C0380931D0390931E0300912D
:101B70000C0210910D0220910E0230910F020F3FC6
:101B80001F4F2F4F3F4FF1F000910C0210910D02AB
:101B900020910E0230910F020E3F1F4F2F4F3F4FEB
:101BA00089F0C0900C02D0900D02E0900E02F090EF
:101BB0000F0221E08C149D04AE04BF0408F420E061
:101BC0002093370378941F910F91FF90EF90DF904F
:101BD000CF90BF90AF909F908F907F906F905F90CD
:101BE0004F9008954B015C0184189508A608B7082A
:101BF000A3019201261B370B480B590B6415750581
:101C000086059705D0F082169306A406B50640F423
:101C100020E030E0A90181149104A104B10491F401
:101C2000A0E1B7E20E945D38A7019601261B370BA1
:101C3000480B590BCA01B901C5CF82169306A406F9
:101C4000B50670F7A0E1B7E2A50194010E945D38E6
:101C50006C0D7D1D8E1D9F1DB5CFFECECF93DF93E6
:101C600000D01F92CDB7DEB71C821B821A82198268
:101C700010923303109234031092350310923603FE
:101C8000BE016F5F7F4FCE0103960E94292B6981B1
:101C90007A818B819C810E941724009761F4BE0198
:101CA0006F5F7F4FCE0103960E94352B69817A8149
:101CB0008B819C812ED50F900F900F900F90DF910C
:101CC000CF910895FF920F931F93CF93DF93082F27
:101CD00060E070E0CB010E946C33FF24F3940E941B
:101CE0000023EC01892B89F010E0CE3F8FEFD8075D
:101CF00069F0002361F160E070E0CB010E946C3379
:101D000081E090E0892B59F322C011E025D5EC0148
:101D1000892B21F0CE3F8FEFD80759F711111EC044
:101D200011E0229609F410E00E94B022EC01892B08
:101D300021F0CE3F8FEFD807E1F6111111C011E06D
:101D4000CE3F8FEFD80709F410E001110BC0CE0190
:101D5000DF91CF911F910F91FF90089511E0E4CF93
:101D600011E0F3CF60E070E0CB010E946C331F25DF
:101D7000812F90E0C7CFCF93DF93809137038823E3
:101D800021F060E070E0CB014CD635D6D0E0C0E069
:101D9000892B71F06AE070E080E090E00E946C3383
:101DA00081E090DF28D62196C03D27E0D20781F759
:101DB00027D60E946B2410924F0310924E0310926C
:101DC00048031092490310924A0310924B03109259
:101DD0004403109245031092460310924703109259
:101DE0004003109241031092420310924303109259
:101DF0003C0310923D0310923E0310923F03109259
:101E000038031092390310923A0310923B034EEFBD
:101E10005FEF6FEF7FEF40930C0250930D026093E2
:101E20000E0270930F0210923703EBE2F3E028E00A
:101E3000DF011D922A95E9F71092270310922803DB
:101E40001092290310922A03109223031092240364
:101E5000109225031092260310921F031092200364
:101E6000109221031092220310921B0310921C0364
:101E700010921D0310921E03DF91CF9108951092CE
:101E80005B0310925C0310925D0310925E0310924C
:101E90005A03809163039091640390935903809354
:101EA0005803109257031092560310925203109247
:101EB0005303109254031092550310926003109232
:101EC0005F0390E080E00895CF92DF92EF92FF925F
:101ED0000F931F93CF938C01892B09F055C020914C
:101EE00063033091640380915803909159034091AA
:101EF0006303509164035093590340935803281788
:101F0000390781F010925703109256031092520332
:101F100010925303109254031092550310926003D1
:101F200010925F038091630390916403019761F5C0
:101F300080915F0390916003892B21F480911002BE
:101F4000811112C080915F03909160030197E1F4C9
:101F50008091520390915303A0915403B091550383
:101F60000197A105B10581F4109252031092530319
:101F700010925403109255031092100282E090E0E8
:101F80009093600380935F03809163039091640357
:101F9000019709F01CC18091790390917A03801711
:101FA000910709F014C18091750390917603A09177
:101FB0007703B0917803009709F409C12091740365
:101FC00021110DC040917503509176036091770304
:101FD00070917803452B462B472B09F4F8C02091CC
:101FE0005F03309160032230310509F0F0C0209189
:101FF00056032111ECC0FC01C080D180E280F38047
:1020000080915A03882309F4D3C08091660390918C
:102010006703892B09F4FDC02091660330916703A3
:1020200081E02230310509F080E020916603309193
:102030006703C1E02130310549F0209166033091FA
:102040006703C1E02230310509F0C0E0882309F4BC
:1020500056C02091700330917103409172035091EA
:102060007303C701B6010E94372D87FD14C020916C
:10207000700330917103409172035091730360912A
:102080005B0370915C0380915D0390915E030E94FD
:10209000D22C87FD22C020917003309171034091B2
:1020A000720350917303C701B6010E94372D1816B1
:1020B00034F5209170033091710340917203509177
:1020C000730360915B0370915C0380915D03909159
:1020D0005E030E94D22C811112C0809168039091FE
:1020E0006903A0916A03B0916B03892B8A2B8B2B18
:1020F00019F481E08093570381E080935603CC2349
:1021000009F456C02091700330917103409172031D
:1021100050917303C701B6010E94D22C87FF14C0EF
:1021200020917003309171034091720350917303B9
:1021300060915B0370915C0380915D0390915E03FD
:102140000E94372D87FF22C02091700330917103C8
:102150004091720350917303C701B6010E94D22CC3
:10216000811126C020917003309171034091720358
:102170005091730360915B0370915C0380915D03E8
:1021800090915E030E94372D181694F48091680395
:1021900090916903A0916A03B0916B03892B8A2BFC
:1021A0008B2B19F481E08093570381E080935603D1
:1021B00081E090915603911180E080935A03C09280
:1021C0005B03D0925C03E0925D03F0925E03012B0F
:1021D00009F067C180915F0390916003892BD9F466
:1021E000109265031092560380911002882379F0B3
:1021F00082E090E09093600380935F03109210025E
:10220000209163033091640381E0232BE9F080E0A7
:102210001BC081E00ACF10921002809165038823D1
:1022200049F0109257031092600310925F031092CE
:102230006503EDCF8091630390916403892BE1F0F6
:10224000809156031092560320915F0330916003F2
:102250002230310509F45EC088F42115310509F4F6
:1022600048C02130310509F4F3C010925703109291
:1022700056031092650338C081E0E6CF2330310564
:1022800009F4B1C02430310581F7409152035091D7
:102290005303609154037091550341155105610535
:1022A000710561F041505109610971094093520370
:1022B000509353036093540370935503409152031A
:1022C000509153036091540370915503452B462B55
:1022D000472BD9F4209161033091620321303105FD
:1022E00009F046C0109257031092600310925F03EA
:1022F0000CC080911002882341F082E090E090931E
:10230000600380935F03109210021092500380913B
:102310005703CEC08823C9F3809168039091690365
:10232000A0916A03B0916B03181619061A061B06D2
:102330000CF07DC08091630390916403019709F0D4
:1023400076C08091680390916903A0916A03B0916F
:102350006B038093520390935303A0935403B09361
:10236000550383E090E09093600380935F03CDCFAB
:1023700040916C0350916D0360916E0370916F03F7
:10238000452B462B472BA9F01092570380916C03E5
:1023900090916D03A0916E03B0916F0380935203EF
:1023A00090935303A0935403B093550381E090E0BE
:1023B000DACF882399F08091110290911202A091B6
:1023C0001302B09114028093520390935303A0938D
:1023D0005403B093550384E090E0C5CF10925703A7
:1023E00082E090E0C0CF8091520390915303A0917E
:1023F0005403B09155030097A105B10559F0019719
:10240000A109B1098093520390935303A0935403FD
:10241000B09355038091520390915303A0915403BC
:10242000B0915503892B8A2B8B2B09F06ECF8091AD
:10243000110290911202A0911302B0911402892B03
:102440008A2B8B2B09F44ECF81E080935703B3CFB7
:10245000409152035091530360915403709155037E
:10246000411551056105710561F04150510961093E
:102470007109409352035093530360935403709334
:10248000550340915203509153036091540370914E
:102490005503452B462B472B09F037CF8111C7CF6A
:1024A0009FCF80915003882309F431CF809151034D
:1024B000CF911F910F91FF90EF90DF90CF900895F3
:1024C00010925B0310925C0310925D0310925E0306
:1024D00010925A031092600310925F0310925903F6
:1024E0001092580310927A031092790310925703B6
:1024F00010925603109252031092530310925403F9
:1025000010925503109251031092500310927503CC
:10251000109276031092770310927803109274034E
:102520001092700310927103109272031092730351
:1025300088EE93E0A0E0B0E0809311029093120245
:10254000A0931302B093140210926C0310926D03C7
:1025500010926E0310926F03109268031092690339
:1025600010926A0310926B03109267031092660335
:1025700081E0809310021092650310926403109220
:102580006303109262031092610390E080E008956B
:102590008091630390916403892B19F58091100257
:1025A000882351F080916503811106C081E08093FA
:1025B00051038093500308952091650330911002D8
:1025C00081E090E0332311F090E080E030E082235E
:1025D0009323892B21F01092510381E0EACF1092CE
:1025E0005003089582E090E0FA01918380838FEF99
:1025F0009FEF0895CF93DF93EA01009711F00E94B7
:102600008B251982188290E080E0DF91CF910895A8
:10261000DB01009719F48FEF8C9308952EEF2C9324
:10262000FC013F96EF30F10508F034C08827E45EE6
:10263000FC4E8F4F0C9455384813461344134213E5
:1026400040133C133E133A133813361333132F132E
:102650002B1331134A1380E311968C93089589E26A
:10266000FBCF82E2F9CF11961C92089583E2F4CF5A
:1026700081E2F2CF81E1F0CF87E2EECF8AE2ECCFC8
:1026800080E1EACF84E2E8CF88E2E6CF86E2E4CFD9
:1026900081E3E2CF80E2E0CF8091870390918803CD
:1026A000089590938803809387030895809186030B
:1026B000089590918603892B809386030895982F1F
:1026C0009095809186038923809386030895809155
:1026D0008503089580918303909184030895611583
:1026E000710559F0FB0130E020E070E060E0241754
:1026F000350719F06115710511F0CB010895A0811E
:10270000B181A817B90709F4BF012F5F3F4F369673
:10271000EECF8091890381111CC060D266D2909364
:102720007C0380937B030E94891D0E949B1D9093D4
:10273000800380937F030E9418220E941F2290939F
:102740007E0380937D0381E08093890390E080E0A5
:10275000089584EF9FEF08958F929F92AF92BF925A
:10276000CF92DF92EF92FF920F931F93CF93DF935D
:1027700000D000D000D01F92CDB7DEB71A861986E0
:1027800018861F821E821D821C821B821A82198259
:102790008091890307EF1FEF882309F49CC08E0105
:1027A0000D5F1F4F9E012B5F3F4FAE01495F5F4F93
:1027B000BE01675F7F4F90E080E00E949C238C0108
:1027C000009721F00596029708F0DBC029853A852D
:1027D0002115310509F402C1ED80FE804B815C8139
:1027E000B701640F751F8F8198858617970708F4C6
:1027F000F5C0E20EF31ED7019C91903C09F07FC01A
:102800004230510508F47BC011968C9140918703AA
:1028100050918803452B09F49CC0913F08F071C08A
:102820002CE1290F2D3008F48BC02DE2290F203127
:1028300008F489C0903C21F48150823008F483C0B0
:1028400088E3890F8B3008F481C098E0C92E93E1AA
:10285000D92EE2EFF2E16D817E81AE014F5F5F4FD5
:1028600089859A8519955C01C114D104A1F18980EB
:102870009A808114910479F18B819C818815990546
:1028800008F487C010E000E04B815C8170E060E0FC
:10289000C7010E947F3801151105E9F449815A8169
:1028A00069857A858D819E81680F791FC501F60142
:1028B0001995E980FA800D811E812F81388549851F
:1028C0005A856FEF7FEF81E090E00E9437238C0103
:1028D000892B09F056C0C8012A960FB6F894DEBFBE
:1028E0000FBECDBFDF91CF911F910F91FF90EF9061
:1028F000DF90CF90BF90AF909F908F90089580E031
:1029000085CF30E020E0220F331FF901E558FC4F5E
:102910000190F081E02D309709F497CF892F90E056
:102920001995009709F491CFDC011296ED91FC9175
:1029300013971496CD90DC90309709F08CCF1FC080
:1029400021E030E0E0CF22E030E0DDCF23E030E0F6
:10295000DACFD12CC12CEAEFF2E19F3F09F07BCF17
:10296000E0917B03F0917C03309721F4C90104EFDF
:102970001FEF0CC08FEF90E019950097A9F604EFB8
:102980001FEF89859A85009709F4A5CF0E948B25B2
:10299000A2CF0E9466248C0189859A850E948B258E
:1029A00070E060E0C4010E94FF2398878F830E943B
:1029B00034239E838D836F8178856115710559F06D
:1029C000C8010E9417279A87898706EF1FEF892B76
:1029D00009F058CF59CF08EF1FEF56CF08EF1FEF80
:1029E000D0CF20918903222319F020E00C94A01D60
:1029F00087EF9FEF08958091870390918803089552
:102A00000E9424220E947E21F5D0EBE7F3E088E0CB
:102A1000DF011D928A95E9F71092890390E080E02A
:102A200008950C94DC1F21E040E050E0BA010C94C2
:102A3000A01D86E090E0FA019183808390E080E021
:102A4000089547E050E068E372E049CEDF92EF92EC
:102A5000FF920F931F93CF93DF938A01EC01C60F70
:102A6000D71FE0908D03F0908E03D9800E944E24F2
:102A7000D816190678F082E090E0F80191838083FF
:102A80008EEF9FEFDF91CF911F910F91FF90EF900D
:102A9000DF900895EF2841F482E090E0F8019183FF
:102AA000808384EF9FEFEECF898180938C0390E049
:102AB0000196F8019183808390E080E0E3CFCF938B
:102AC000DF93EA010E948D20882321F00E945B247D
:102AD0000E948E2082E090E0998388838BEF9FEFA5
:102AE000DF91CF910895CF93DF93EB0186E0FB0157
:102AF00011928A95E9F78FEF8883D8DD8983E7DD26
:102B00008A83E8DD9D838C83DF91CF910895CF93F5
:102B1000DF93EA010E949020811109C082E090E0D9
:102B20009983888385EF9FEFDF91CF91089590E09F
:102B300080E0B7DD81E090E09983888390E080E0D9
:102B4000F3CF0F931F93CF93DF93EA018C01060F0E
:102B5000171F0E94902081110BC082E090E09983A2
:102B6000888385EF9FEFDF91CF911F910F9108959B
:102B7000F8018181823038F082E090E09983888387
:102B80008EEF9FEFF0CF81E090E08BDD88E090E06A
:102B90009983888390E080E0E6CFCF93DF9300971E
:102BA000D1F4EB01FB01329686E0DF011D928A959C
:102BB000E9F78FEF888385E089831A820E944E248B
:102BC0008B830E944D249D838C8381E08E838F8331
:102BD000DF91CF910895DF91CF911ACD81E295E1F8
:102BE00090938B0380938A03089580918A03909138
:102BF0008B03089510928B0310928A03089580919D
:102C00008D0390918E030895411105C061157105E2
:102C10008105910561F060938D0370938E0380931D
:102C20008F03909390034093910381E0089580E097
:102C30000895FF920F931F93CF93DF938A01EC01C6
:102C4000C60FD71FF9800E944E24F816190668F0A7
:102C500082E090E0F801918380838EEF9FEFDF9117
:102C6000CF911F910F91FF9008956C817D818E818E
:102C70009F814B81C9DF811108C082E090E0F8019B
:102C80009183808384EF9FEFEACF898180938C03C7
:102C900090E00196F8019183808390E080E0DFCF9F
:102CA000CF93DF93EA01FC01E60FF71F6481758182
:102CB000868197814381A8DF811109C082E090E07D
:102CC0009983888384EF9FEFDF91CF91089581E00E
:102CD00090E09983888390E080E0F6CFEDE8F3E020
:102CE0004081518162817381480F511D611D711DA9
:102CF00040835183628373830895CF93C0918C0383
:102D00004C2F50E060918D0370918E0301960E94CC
:102D100076388C2FE3DF10928C03CF9108950097C3
:102D200099F480918D0390918E032FEFFB01208306
:102D3000892B59F020918C0330E02F5F3F4F2417EF
:102D4000350719F4CB01D9CF63CC0895009799F4D6
:102D500080918D0390918E032FEFFB012083892BAF
:102D600059F020918C0330E02F5F3F4F2417350737
:102D700019F4CB01C2CF4CCC089523E1AC01249FC0
:102D8000C001259F900D1124E0919603F0919703C7
:102D9000E80FF91F238134812250310981E022306C
:102DA000310508F080E008950F931F93CF93DF93D0
:102DB0000091980310919903D0E0C0E080E00C17D7
:102DC0001D0749F491E0811190E0892FDF91CF91A7
:102DD0001F910F9108958111F5CFCE01CEDF21967D
:102DE000EECFA0919603B0919703109729F120910F
:102DF00098033091990382179307F0F453E1589F99
:102E00009001599F300D1124A20FB31FED91FC9139
:102E10001197309789F012968C91681768F48DE0BD
:102E2000689FE00DF11D112480819181892B21F093
:102E300081E09281491708F080E008959C0143E108
:102E4000429FC001439F900D1124E0919603F091A1
:102E50009703E80FF91F8385823091F481E090E0B9
:102E600065817681409115025091160264177507AD
:102E700011F490E080E0892B19F081E0232B09F018
:102E800080E00895FC01A081B1818DE0689FA00DD4
:102E9000B11D112413964D915C9185859685489FAF
:102EA0009001499F300D589F300D1124C9010196A2
:102EB000611103C0478144FD04960895EF92FF928B
:102EC0000F931F93CF93DF93EA01FC01E60FF71FE7
:102ED00002811381E480F5804F2D6E2DC80181DFC2
:102EE00081110DC082E090E0998388838EEF9FEF7F
:102EF000DF91CF911F910F91FF90EF900895C8013E
:102F00003CDF882339F082E090E09983888388EF62
:102F10009FEFEECF10931C0200931B02E0921D0264
:102F2000F0921E0281E090E09983888390E080E037
:102F3000DFCFCF92DF92EF92FF920F931F93CF9349
:102F4000DF937A01EC01C60FD71FC0901B02D0900F
:102F50001C0200911D0210911E02412F602FC6011C
:102F600040DF811110C082E090E0F70191838083FF
:102F70008AEF9FEFDF91CF911F910F91FF90EF901C
:102F8000DF90CF900895C601F8DE882341F082E0FB
:102F900090E0F7019183808388EF9FEFEBCF4C8126
:102FA0005D816E817F819A8189818F3F41F082E0CE
:102FB00090E0F701918380838EEF9FEFDBCFE3E119
:102FC000EC9D9001ED9D300D1124E0919603F09160
:102FD0009703E20FF31F0190F081E02D2DE0029F97
:102FE000E00DF11D11240190F081E02D27E0129FEA
:102FF000E00DF11D1124808391838B8182834383B3
:103000005483658376831F5F10931E0281E090E0F6
:10301000F7019183808390E080E0ACCFEF92FF9244
:103020000F931F93CF93DF937A018C01060F171F25
:10303000C0919603D0919703209781F021E030E072
:10304000F8018281938140919803509199038417EC
:10305000950710F030E020E0232B71F482E090E03F
:10306000F701918380838EEF9FEFDF91CF911F91C6
:103070000F91FF90EF90089543E1489F9001499F81
:10308000300D1124C20FD31F78DE882341F082E077
:1030900090E0F7019183808388EF9FEFE6CFF801FE
:1030A0002481358120383105C8F687818111D6CF3A
:1030B0004181842F90E08F7E009741F082E090E084
:1030C000F7019183808386EF9FEFCFCF4F833E83BD
:1030D0002D83268128871986223010F421E0288745
:1030E00021E030E0F70131832083BFCF88E090E01A
:1030F000FA019183808390E080E00895FB018FEFD7
:10310000808381E181838FEF9FEF9383828380E8C7
:1031100090E095838483168217820895FB018FEFD8
:10312000808391E0918382839383848384E3858386
:1031300081E090E0978386830895DF92EF92FF927B
:103140000F931F93CF93DF93EA01FC01E60FF71F64
:103150008181813071F082E090E0998388838FEFE4
:103160009FEFDF91CF911F910F91FF90EF90DF9034
:10317000089582819381D4802581E680F780009133
:103180009603109197030115110539F482E090E040
:10319000998388838CEF9FEFE4CF409198035091FF
:1031A00099038417950738F082E090E0998388832B
:1031B0008EEF9FEFD6CF892B39F082E090E0998394
:1031C000888386EF9FEFCDCF8D2D8D7FB1F7213096
:1031D000A1F781E0D11006C091E0E916F10431F0C9
:1031E00080E004C0E2E0EE16F104D0F3882329F376
:1031F00090E080E0C2DD882339F082E090E099839E
:10320000888388EF9FEFADCFF801D38681E0848774
:10321000F686E586108A178681E090E09983888398
:1032200090E080E09ECF4CE050E062E672E057CA4A
:103230008F929F92BF92CF92DF92EF92FF920F9365
:103240001F93CF93DF93EA01FC01E60FF71F828102
:1032500093810481B580E0919603F09197033097B4
:1032600091F482E090E0998388838CEF9FEFDF9167
:10327000CF911F910F91FF90EF90DF90CF90BF9073
:103280009F908F9008952091980330919903821711
:10329000930738F082E090E0998388838EEF9FEF68
:1032A000E6CF23E1289F6001299FD00C1124EC0D6B
:1032B000FD1DE080F180E114F10499F2828108178C
:1032C00048F78DE0089F80011124E00EF11EF70100
:1032D00080819181892B29F6BB20E1F2F7E0BF9E26
:1032E00040011124C4010E945225F701918380837B
:1032F000E0919603F0919703EC0DFD1D0190F08194
:10330000E02DE00FF11F80819181009739F482E078
:1033100090E0998388838DEF9FEFA9CFA40170E09F
:1033200060E00E947F388091960390919703C80EC9
:10333000D91EF60180819181080F191FF801B28210
:1033400081E090E09983888390E080E090CFAF9215
:10335000BF92CF92DF92FF920F931F93CF93DF9391
:10336000EA01FC01E60FF71F82819381F48000914E
:103370009603109197030115110581F482E090E006
:10338000998388838CEF9FEFDF91CF911F910F91ED
:10339000FF90DF90CF90BF90AF9008952091980359
:1033A000309199038217930738F082E090E0998377
:1033B00088838EEF9FEFE8CF2FEF2F0D2C3FA8F7DC
:1033C00023E1289F6001299FD00C11240C0D1D1DA5
:1033D000F80180819181892B89F6FDE0FF9E5001E3
:1033E0001124C5010E945225F80191838083E09148
:1033F0009603F0919703EC0DFD1D8081918100975C
:1034000039F482E090E0998388838DEF9FEFBCCF01
:10341000A50170E060E00E947F38E0919603F09192
:103420009703EC0DFD1DF28281E090E09983888383
:1034300090E080E0A9CFCF92DF92EF92FF920F93BE
:103440001F93CF93DF93860F971FFC010281138197
:103450008091960390919703892B81F082E090E010
:10346000FA01918380838CEF9FEFDF91CF911F91C1
:103470000F91FF90EF90DF90CF900895C801B0E0DA
:10348000A0E00197A109B1098F3F9F4FA105B105A8
:1034900040F082E090E0FA01918380838EEF9FEF0D
:1034A000E4CF7A0183E1809F6001819FD00C1124D9
:1034B000C6010E945225EC01009741F482E090E0A1
:1034C000F701918380838DEF9FEFCFCFA60170E04E
:1034D00060E00E947F38D0939703C09396031093C7
:1034E00099030093980390E080E02FEF3FEF41E0D5
:1034F00061E070E08017910741F481E090E0F7010E
:103500009183808390E080E0B0CF3A8B298B1B863B
:103510004C877E876D87188A1F8601966396EACF4F
:10352000EF92FF921F93CF93DF93EC0110E0F12C09
:10353000E12C6A811617B0F083E0689FB001112476
:10354000AE014F5E5F4FC7010E94B725009721F083
:103550002FEF3FEF3A8B298BDF91CF911F91FF9097
:10356000EF900895612FCE018DDC61E070E00E9444
:10357000FF23E816F90608F47C011F5FDACFF89400
:10358000209194033091950381E02115310509F0D4
:1035900080E0232B09F0789408952F923F924F9268
:1035A0005F926F927F928F929F92AF92BF92CF92D3
:1035B000DF92EF92FF920F931F93CF93DF933C0123
:1035C000660E771EF301828193814C01B12CA12CF0
:1035D000C0919603D0919703209769F021E030E0E5
:1035E00060919803709199038617970710F030E067
:1035F00020E0232BD1F482E090E0FA0191838083D4
:103600008EEF9FEFDF91CF911F910F91FF90EF9081
:10361000DF90CF90BF90AF909F908F907F906F90F2
:103620005F904F903F902F90089580921F0290924C
:103630002002A0922102B092220263E1689F9001D1
:10364000699F300D1124C20FD31FF3018181833094
:1036500040F082E090E0FA019183808386EF9FEF53
:10366000D1CF2A012B813C81232BF1F42881398190
:103670009F8191FF2EC0232B09F46FC020919B03E3
:103680009A81422F490F5527551FBA0141E050E05A
:103690006138710514F050E040E0452B09F45DC03D
:1036A0002A87920F90939B038150823008F481C047
:1036B00066DF882309F4D8C0F3018181813009F4E1
:1036C0008DC008F47BC0823009F4C6C090E080E071
:1036D000ADC0232B09F441C020919A039A81E22FB7
:1036E000E90FFF27FF1F41E050E0ED3FF10514F027
:1036F00050E040E0452B89F12A87920F90939A037E
:10370000D3CFA081B181A20FB31F11966C91060F88
:10371000111D0196295F3F4F8417950794F38D85FE
:103720009E85089F1001099F300C189F300C1124B2
:10373000C114D104D1F48F8184FF17C00E944D249D
:10374000F5E02F0E311C21E08215930508F420E0EE
:10375000A701435F5F4F21110EC082E090E0F201AC
:103760009183808387EF9FEF4DCF0E944D242FEFF1
:10377000221A320AE8CF88819981E80EF91EF701F2
:1037800014830383FFEFCF1ADF0A7A018A818C1535
:103790001D0409F00CF48CCFE881F981EE0DFF1DBA
:1037A000428150E030E020E010E000E090E080E076
:1037B000B3CFF12CE12CD12CC12CE8CF81E090E0EB
:1037C0009C838B83F1DA882309F480CF81E090E039
:1037D0000E94511380E40E945F1378CF89899A89EF
:1037E000019661F083E090E09C838B8382E090E01F
:1037F0000E94511380E40E94591368CF8D819E81ED
:10380000209115023091160282179307D1F460912E
:10381000190270911A02AE014F5E5F4F809117023C
:10382000909118020E94D6260097E1F2789422E047
:1038300030E0F20131832083892B99F08DEF9FEFE7
:10384000E1CE89288A288B2869F6892B59F6CE0182
:1038500067DE188A1F86E8CF82E090E09C838B8326
:1038600035CF90E080E0CECE82E090E0F20191830F
:10387000808385EF9FEFC6CE8F929F92AF92BF92CB
:10388000CF92DF92EF92FF920F931F93CF93DF932C
:10389000EA018C01060F171FF8018181833098F02F
:1038A00082E090E09983888386EF9FEFDF91CF914C
:1038B0001F910F91FF90EF90DF90CF90BF90AF904E
:1038C0009F908F9008958091960390919703892BF4
:1038D00061F081E090E02091980330919903232BCF
:1038E00011F490E080E0892B39F482E090E0998334
:1038F00088838EEF9FEFDACF42DE882309F4DFC0A2
:10390000F8018181813009F495C0E8F0823099F4A2
:103910002091980330919903E0919603F0919703D9
:1039200090E080E041E050E02817390709F0BDC081
:103930003BDA811117C0789481E090E09983888305
:1039400090E080E0B3CF2091980330919903E0910B
:103950009603F091970390E080E041E050E0281753
:10396000390741F481E090E00E94511380E40E9405
:103970005F13E1CF63817481672B11F0548343831C
:1039800001967396ECCFE0919603F0919703E00FC8
:10399000F11F2381348122303105D9F42189328904
:1039A0002F3F3F4FB1F42581368140911502509150
:1039B00016022417350761F5AF014F5E5F4F609126
:1039C000190270911A0280911702909118020E94B8
:1039D000D626EFEFCE1ADE0AEE0AFE0A0D5E1F4F64
:1039E000409198035091990370E060E0C416D506A9
:1039F000E606F7063CF5009731F27894892B09F436
:103A00009BCF82E090E0998388838DEF9FEF4ECF2C
:103A1000C114D104E104F104E1F6232BD1F6CF0166
:103A20007FDDE0919603F0919703E00FF11F108A7C
:103A30001786CFCF10E000E090E080E0C12CD12CC1
:103A40007601CECF0097C9F610E000E0812C912CD2
:103A5000540183E0E82EF12C1AC0E0919603F09116
:103A60009703E00FF11F83819481029749F4F48258
:103A7000E38282E090E00E94511380E40E94591397
:103A8000FFEF8F1A9F0AAF0ABF0A0D5E1F4F80918A
:103A9000980390919903B0E0A0E088169906AA06D1
:103AA000BB06DCF290E080E0A8CF638174816230D5
:103AB000710511F4548343830196739635CF82E0E8
:103AC00090E09983888385EF9FEFF0CE0097B9F45B
:103AD0008FEFFB01808320911F023091200243E190
:103AE000429FC001439F900D1124E0919603F091F5
:103AF0009703E80FF91F8285FB01818308950C94D9
:103B0000081388E090E0FA019183808390E080E0E0
:103B100008951092950310929403E6E9F3E086E08D
:103B2000DF011D928A95E9F783E199E19093930370
:103B30008093920308958091920390919303089546
:103B40002F923F924F925F926F927F928F929F92AD
:103B5000AF92BF92CF92DF92EF92FF920F931F939B
:103B6000CF93DF93CDB7DEB72F970FB6F894DEBFB4
:103B70000FBECDBFF894E0919403F0919503319678
:103B8000F0939503E09394037894409096035090BB
:103B900097034114510409F40CC2E0919803F09189
:103BA0009903EF2B09F405C22D8749875A876B8744
:103BB0007C8798878F831201B12CA12C10E000E044
:103BC0008091980390919903A816B90618F40115ED
:103BD000110529F1F8948091940390919503019730
:103BE00090939503809394037894C8012F960FB611
:103BF000F894DEBF0FBECDBFDF91CF911F910F9123
:103C0000FF90EF90DF90CF90BF90AF909F908F90FC
:103C10007F906F905F904F903F902F90089571012B
:103C2000E418F508D10117968C91179781FD54C0BF
:103C300013968D919C911497039709F04DC015969A
:103C40008D919C91EF81F8858E179F0709F044C0F4
:103C5000B50190E080E07FD48A8320919603309173
:103C600097033D832C833D85332309F44CC04C815D
:103C70005D81452B09F49AC1809198039091990335
:103C8000A816B90608F092C1C501D8D88823E9F072
:103C90006C817D816E0D7F1D7D836C83DB011F96A2
:103CA0008D919C91892B89F0D12CC12CF12CE12C88
:103CB000AC81BD8112968C9112978E151F0409F06C
:103CC00094F450961C921E921F972A81222321F071
:103CD000B50190E080E041D43FEFA31AB30A43E17D
:103CE000240E311C6DCFAC81BD81ED91FC91EC0DAA
:103CF000FD1D858196810FD7BFEFEB1AFB0AEDE022
:103D0000CE0ED11CD5CFEC81FD81309709F44EC188
:103D10008091980390919903A816B90608F046C1BE
:103D2000EE0DFF1DFF87EE87C50188D88B838823A2
:103D300039F1AE85BF851F968D919C915097019664
:103D400021E01D964D915C918417950709F020E0C4
:103D50002E831982712C10E000E0AE85BF8512968B
:103D60008C91781608F45DC0EE85FF858785908973
:103D70000196658576850E941F38908B8787A5CF31
:103D8000B1E0BE83E6CF992493946BC08BD6F60145
:103D90009683858382C0D601ED90FC90B7E06B9E40
:103DA000E00CF11C1124F7016381748180818F3F45
:103DB00061F121E030E002C0220F331F8A95E2F763
:103DC000C901092E000CAA0BBB0BFB0140815181DC
:103DD0006281738184239523A623B72321E0892B55
:103DE0008A2B8B2B09F420E0D4012C93D701119658
:103DF0008C91F60123853485820F932F911D880EB7
:103E0000991E1486138663949BC0418150E0C401BF
:103E10000E947638EBCF998206EF1FEFC5C019825A
:103E2000C3C0F981F111A0CFEDE07E9E7001112495
:103E3000AE85BF85CD90DC90CE0CDF1C15D49D8364
:103E40008C83BB81BB2309F49ECF81E0EE85FF8587
:103E500027853089232B09F080E0982E882309F4E8
:103E600058C0672D8E859F850DD8D60118969C93D6
:103E70008E93179761E070E0C2D4EE85FF852189AB
:103E800032892F3F320709F481CFBC01C901CFD756
:103E9000D60116969C938E931597D60115968D9103
:103EA0009C911697009709F4B6CFEC81FD818E0F97
:103EB0009F1F1A969C938E931997AE85BF85ED919F
:103EC000FC911197EE0EFF1EF701218532851486B5
:103ED00013861A968C91870DD9018D93711016C097
:103EE000EE85FF85878184FF11C049855A856B85E2
:103EF0007C85F9014183528363837483F701838551
:103F000094850496A80FB91F14861386F701B2870B
:103F1000A187D60115968D919C911697892B09F44E
:103F200043C0EE85FF8525813681809115029091F1
:103F300016022817390779F019968D909C90612CFC
:103F4000D60112968C911297681608F424CF1A960F
:103F50009C928E921997BE81BB2309F460CF61E0D9
:103F600070E0F601878190854AD4D6011796ED90CE
:103F7000FC90189715964D915C91E1E0F0E0BA81C4
:103F8000BB2311F0F0E0E0E00C811D819C01B50144
:103F9000882799278E1B9F0B6AD38C01892B21F0D0
:103FA000F60185819681B7D57394D7CE0FEF1FEFB9
:103FB0008CCE10E000E00ECE2F923F924F925F9297
:103FC0006F927F928F929F92AF92BF92CF92DF9229
:103FD000EF92FF920F931F93CF93DF9380919603FD
:103FE0009091970310E000E0892BA9F0C8DA0AEF5E
:103FF0001FEF882381F02090980330909903C0919F
:104000009603D0919703D12CC12C10E000E02C1422
:104010003D04A9F47894C801DF91CF911F910F91CD
:10402000FF90EF90DF90CF90BF90AF909F908F90D8
:104030007F906F905F904F903F902F900895C601B2
:104040000E941E17882309F18B819C810397E9F454
:104050008F859889892BC9F0B60190E080E07BD2EA
:1040600021E030E0882311F030E020E044245524A2
:10407000421A530AB12CA12C912C812C8A818815CB
:10408000190409F038F4188A1F864FEFC41AD40AAD
:104090006396BDCFE881F981EA0DFB1D858196818C
:1040A000892BA1F161E070E087819085A8D33C0164
:1040B000DBD28C01E881F981EA0DFB1D81859285B7
:1040C00025813681200F311FAC01421B530B9A0111
:1040D00047815085421B530B70E060E00E947F389F
:1040E000E881F981EA0DFB1DE780F0844581568166
:1040F0009301B601C201BBD28C01892B39F0E88152
:10410000F981EA0DFB1D8581968105D55FEF851A42
:10411000950A8DE0A80EB11CB1CF31CA78940895EC
:104120002F923F924F925F926F927F929F92AF92A7
:10413000BF92CF92DF92EF92FF920F931F93CF9394
:10414000DF9300D000D0CDB7DEB700919603109179
:104150009703992493940115110509F43EC0A0908A
:104160009803B09099030BDA982E8823B1F110923E
:10417000970310929603109299031092980310924D
:104180009A0310929B038FEF9FEFDC0180931F0235
:1041900090932002A0932102B093220278947FD3BF
:1041A0001E830D83C12CD12C7601C501B0E0A0E0A7
:1041B00089839A83AB83BC8322242A94322C8981FD
:1041C0009A81AB81BC81C816D906EA06FB06F4F0D9
:1041D000C801A1D480E40E945F13892D26960FB6F2
:1041E000F894DEBF0FBECDBFDF91CF911F910F912D
:1041F000FF90EF90DF90CF90BF90AF909F907F9017
:104200006F905F904F903F902F900895AD81BE8149
:1042100015968D919C91169720911502309116025A
:1042200082179307D1F451968D919C91EED5ED8133
:10423000FE8180819181B12CA12C412C512C320125
:10424000892B89F5BFEFCB1ADB0AEB0AFB0AED815C
:10425000FE817396FE83ED83B2CFC114D104E104D5
:10426000F10429F7892B19F7ED81FE818189928963
:104270008F3F980709F029D5AD81BE8152963C92B7
:104280002E925197D4CF8A0D9B1DDC018D919C916C
:10429000009709F040D4BFEF4B1A5B0A6B0A7B0A08
:1042A000EDE0AE0EB11CAD81BE818D919C91119758
:1042B00012964C9150E070E060E044165506660698
:1042C00077060CF328D4BECFCF93DF93EA0128DF23
:1042D000811109C082E090E09983888385EF9FEF88
:1042E000DF91CF91089581E090E00E94511381E029
:1042F00090E09983888390E080E0F2CF11DF109204
:10430000930310929203089542E050E06AEA72E04B
:104310000C946F13FF920F931F93CF93DF938A0137
:10432000EC01C60FD71FF980B9D20897F816190605
:1043300071F068F082E090E0F801918380838EEF65
:104340009FEFDF91CF911F910F91FF9008956C81A6
:104350007D818E819F814B810E940416811108C04E
:1043600082E090E0F8019183808384EF9FEFE9CFB2
:10437000F9800E94FF154F2D50E0BE01685F7F4F0E
:104380000E94763889810E946E1681E090E0F801E3
:104390009183808390E080E0D4CFDF92EF92FF9210
:1043A0000F931F93CF93DF938A01EC01C60FD71FA2
:1043B0000E94FF157C01D98071D2DD2059F002974F
:1043C00021E030E0D816190619F010F030E020E0B6
:1043D000232B79F482E090E0F801918380838EEFC3
:1043E0009FEFDF91CF911F910F91FF90EF90DF90A2
:1043F0000895EF2841F482E090E0F80191838083F2
:1044000084EF9FEFEECFF9800E94FF154F2D50E013
:10441000BE016E5F7F4F0E94763889810E946E16C2
:1044200081E090E0F8019183808390E080E0D9CF33
:1044300084E891E290939D0380939C03089580917A
:104440009C0390919D0308950895FC0111821082B0
:10445000938382830895DB011D921C92DC011296E6
:10446000ED91FC9113977183608313967C936E9307
:1044700012970895FC0180819181DB018D939C93BB
:10448000A081B181109741F08D919C91918380839F
:10449000892B11F4F383E2830895FC0180819181DB
:1044A000DB018D939C93892B11F473836283718359
:1044B00060830895FC0111821082938382830895A2
:1044C000CF93DF931F921F92CDB7DEB71A82198266
:1044D000F894BE016F5F7F4F83EA93E0CBDF898161
:1044E0009A81009709F017D389819A81892B89F7DE
:1044F000BE016F5F7F4F87EA93E0BCDF89819A81BD
:10450000009709F008D389819A81892B89F77894DB
:104510000F900F90DF91CF910895CF93DF931F926B
:104520001F92CDB7DEB71A821982F894BE016F5F71
:104530007F4F8FE993E09EDF89819A81009709F090
:10454000EAD289819A81892B89F778940F900F900C
:10455000DF91CF91089581E0089590E080E0089583
:10456000EF92FF920F931F93CF93DF931F921F92AF
:10457000CDB7DEB71A82198280919E0307EF1FEF35
:104580008823A1F1F894BE016F5F7F4F87EA93E023
:1045900071DF789489819A81EE24E394F12C892B40
:1045A00051F4F894BE016F5F7F4F83EA93E062DFBE
:1045B0007894F12CE12C89819A810EEF1FEF0097FE
:1045C000A9F0FC014281538164E070E076D68C0151
:1045D000892B61F0F89469817A81C701880F991F4E
:1045E000880F991F8D559C4F58DF7894C8010F9004
:1045F0000F90DF91CF911F910F91FF90EF90089551
:104600000F931F93CF93DF9300D01F92CDB7DEB7E8
:104610001C821B821A82198280919E0307EF1FEF72
:104620008823C1F0AE014D5F5F4F64E070E0CE01C2
:104630000196B6D68C01892B69F4E981FA818B81C8
:104640009C8193838283F89469817A818FE993E0D6
:1046500002DF7894C8010F900F900F900F90DF91B8
:10466000CF911F910F910895BBD7049608958F9213
:104670009F92AF92BF92CF92DF92EF92FF920F93F1
:104680001F93CF93DF931F921F92CDB7DEB71A828D
:104690001982BC016F5F7F4F6330710598F0AA24C7
:1046A000AA94BA2CC5010F900F90DF91CF911F9162
:1046B0000F91FF90EF90DF90CF90BF90AF909F90C1
:1046C0008F9008954115510551F3480159018A0110
:1046D0006C01CADF8815990511F7E114F104F9F2AC
:1046E0008E0D9F1DA816B906D0F280919E038823D7
:1046F000F1F0F894B501645071099701AE014F5F74
:104700005F4FC8010496E1D65C01892B71F4898161
:104710009A81F80193838283C601880F991F880FBD
:10472000991FB8018D559C4F96DE7894BBCF87EFCB
:10473000A82EBB24BA94B6CFAF92BF92CF92DF928D
:10474000EF92FF920F931F93CF93DF931F921F92CD
:10475000CDB7DEB71A821982892B09F047C06115DF
:10476000710509F443C04115510509F43FC02115F5
:10477000310509F43BC001151105C1F180919E037B
:104780008823B9F179016A015B01F894BE016F5F7A
:104790007F4F8FE993E06EDE789489819A8100974C
:1047A00059F1DC0112966D917C91A8010496A6D670
:1047B0008C01E981FA81D501ED93FC93828193818B
:1047C0000496F601918380834FDFD7018D939C93EC
:1047D000C8010F900F90DF91CF911F910F91FF9023
:1047E000EF90DF90CF90BF90AF9008950FEF1FEF45
:1047F000EFCF07EF1FEFECCF0EEF1FEFE9CFCF9317
:10480000DF93EC01672B71F4F4D68C179D0760F0F1
:10481000E7D62496C80FD91FE6D68C0F9D1FDF91CF
:10482000CF910895E3D6F1CF90E080E0F8CF0F93D9
:104830001F93CF93DF9320919E0321112BC08B01F7
:10484000EC0183EA93E001DE87EA93E0FEDD8FE985
:1048500093E0FBDD97D00097C1F4CBD670E060E029
:10486000CEDF43E252E062E070E081D1009769F46C
:104870008091230290912402CED6B801CE0103D5B7
:10488000009719F421E020939E03DF91CF911F91AF
:104890000F91089584EF9FEFF8CFA8C6AAC6CF93D3
:1048A000DF93AAD6EC01892B11F40ADE36DECE01A5
:1048B000DF91CF910895CF93DF939ED6EC01892BA2
:1048C00009F4FEDDCE01DF91CF910895809123029E
:1048D000909124020895CF93DF9380919E03D0E0BE
:1048E000C0E08823D1F09CD6EC01892BB1F4E8DD3F
:1048F00014DE8091230290912402E7D1E8D2EC01EA
:10490000892B59F483EA93E0D5DD87EA93E0D2DD81
:104910008FE993E0CFDD10929E03CE01DF91CF911E
:104920000895EF92FF920F931F93CF93DF93EC01C3
:104930007A018B010F5F1F4F0E9DA0010F9D500D3F
:104940001E9D500D112470E060E00E947F3890E0C1
:1049500080E0F0E0E0E02FEFE816F90639F4DF91AF
:10496000CF911F910F91FF90EF9008951A821982B5
:104970002883309711F0D283C1830196FE01C00FC6
:10498000D11FEACFCF92DF92EF92FF920F931F9346
:10499000CF93DF9304EE16E00C7F43E050E065E236
:1049A00072E08BE292E01CD485E2E82E82E0F82EE1
:1049B0009BE2C92E92E0D92EC3E9D7E0D7014D91F1
:1049C0005D917D01F601619171916F0119830883F9
:1049D0005D834C835B834A837F836E839B012F5F60
:1049E0003F4F249FC001259F900D349F900D1124AF
:1049F000998788870115110511F0C80192DF888514
:104A00009985080F191F2A96FBE2EF16F2E0FF06C0
:104A1000A9F6EDEAF3E084E393E0DF019C011D9247
:104A200021503040E1F71092AC031092AB0310928A
:104A3000B2071092B1071092B6071092B507109204
:104A4000B4071092B3071092B8071092B7071092EC
:104A5000BA071092B9071092BC071092BB071092C8
:104A6000C0071092BF071092BE071092BD071092A8
:104A7000C2071092C1071092C4071092C307109288
:104A8000900710928F07109292071092910790E072
:104A900080E0DF91CF911F910F91FF90EF90DF9019
:104AA000CF9008950097F1F0F894ABE2B2E0E3E91B
:104AB000F7E030E020E04D915D9148175907A8F0EC
:104AC000428153814115510581F08AE0829FF001B6
:104AD000839FF00D1124ED56F84F8081918100974E
:104AE00059F4789490E080E008952F5F3F4F3A9614
:104AF0002330310501F7F5CFDC0111966D917C91E2
:104B0000718360834150510953834283FC01219397
:104B1000CF0178940895009749F1DC018E9185309A
:104B200041F4E0919107F09192073097F9F0CD01AF
:104B300019948530D8F4282F30E0F8948FEF8C93B7
:104B40008AE0829FF001839FF00D1124ED56F84F0B
:104B50008081918112969C938E931197B183A0834B
:104B60008281938101969383828378940895CF9272
:104B7000DF92EF92FF920F931F93CF93DF939C01ED
:104B800080EB93E08C7F4115510509F49BC0211502
:104B9000310509F497C06115710509F493C07A01D4
:104BA000AB01B9016D5F7F4F6C7F9B012F5F3F4F62
:104BB000249F8001259F100D349F100D1124F8941F
:104BC0002091B1073091B207232B59F42091B907F6
:104BD0003091BA072115310569F12017310708F026
:104BE00058C02091BB073091BC07232B91F4209132
:104BF000B9073091BA07820F931F2091C3073091F4
:104C0000C4072115310509F441C02017310708F008
:104C100056C07894CFEFDFEF86EF9FEFF701D18397
:104C2000C083DF91CF911F910F91FF90EF90DF90A4
:104C3000CF900895C3E0D0E0C090AB03D090AC0318
:104C400021E333E02C193D092017310710F32AE046
:104C50002C9FF0012D9FF00D1124ED56F84F9183FC
:104C6000808355834483538342837783668311878C
:104C70000087009709F055DE0C0D1D1D1093AC0345
:104C80000093AB03789490E080E0C8CFC4E0D0E01C
:104C9000D3CFC3E0D0E02AE02C9FF0012D9FF00D90
:104CA0001124ED56F84F91838083558344835383B9
:104CB000428377836683009729F333DEE3CFC4E032
:104CC000D0E0E9CF8FEF9FEFACCF9C010397029725
:104CD00008F069C0F89484E09AE0482F50E0241767
:104CE00035070CF44DC091E08AE0829FF001839F6C
:104CF000F00D1124ED56F84F1182108215821482A6
:104D000013821282178216829923B1F18091B10722
:104D10009091B207892BA9F42091B9073091BA0775
:104D20002115310571F08091AB039091AC03821B8A
:104D3000930B9093AC038093AB031092BA0710923D
:104D4000B9078091BB079091BC07892BA9F42091EA
:104D5000C3073091C4072115310571F08091AB0371
:104D60009091AC03821B930B9093AC038093AB03A5
:104D70001092C4071092C307789490E080E00895E1
:104D8000949FF001959FF00D1124ED56F84F40814E
:104D90005181452B31F440855185452B11F48150CB
:104DA0009CCF90E0A1CF8FEF9FEF08954115510563
:104DB00049F1009739F16115710521F1F8942091BD
:104DC0008F0730919007232BB9F4209191073091F0
:104DD0009207232B89F49093900780938F07709309
:104DE000920760939107789425E030E090E080E0AE
:104DF000FA0131832083089578942FEF3FEF86EFF7
:104E00009FEFF6CF8FEF9FEF0895059769F4F89421
:104E10001092900710928F071092920710929107AC
:104E2000789490E080E008958FEF9FEF08956115EA
:104E3000710519F4F0E0E0E011C08530910581F4CE
:104E4000E0918F07F09190073097A1F3CB01019685
:104E50001995009779F3FC0185E08193CF010895BE
:104E60009C01235031092230310520F72AE0289F88
:104E7000D001299FB00D1124AD56B84F2D913C9112
:104E80001197232BB9F216962D913C91179726175F
:104E9000370780F2F89412962D913C9113972115C3
:104EA000310529F0ED91FC911197309711F4789428
:104EB000C1CF4181528111965C934E9321503109AB
:104EC00013963C932E93129781937894C7CFE1EE7B
:104ED000F6E08EEADF011D928A95E9F7EDEAF3E04C
:104EE00084E393E0DF019C011D9221503040E1F703
:104EF0001092AC031092AB03E3E9F7E082E3DF0129
:104F00001D928A95E9F7EFE8F7E084E0DF011D9252
:104F10008A95E9F790E080E00895CF93DF93C09100
:104F20003102D0913202CF3FDC0759F40AD490937A
:104F300032028093310297FF09C0D0933202C093AE
:104F4000310284EF9FEFDF91CF91089590E080E0F0
:104F5000FACF8230910528F48093C50790E080E075
:104F600008958FEF9FEF08954F925F926F927F9217
:104F7000AF92BF92CF92DF92EF92FF920F931F9367
:104F8000CF93DF931F921F92CDB7DEB71A8219829B
:104F9000009709F479C06115710509F475C0209175
:104FA00031023091320207EF1FEF2F3F3F4F09F4DC
:104FB00045C06B015C01412C512C3201F12CE12CDC
:104FC00010E000E09E012F5F3F4FA6014E195F09E0
:104FD000B5016E0D7F1D809131029091320216D481
:104FE000892B09F04BC089819A81009741F4E11423
:104FF000F10429F42091C507222309F442C0E80EE8
:10500000F91EEC14FD04D0F480E8481684E8580634
:105010008EE16806710420F560E070E0CB010E942B
:105020006C332AE0420E511C611C711C0A3F4FEF89
:10503000140721F0043F8FEF1807A1F4C8010F9067
:105040000F90DF91CF911F910F91FF90EF90DF9024
:10505000CF90BF90AF907F906F905F904F900895EA
:1050600001EF1FEF81E090E0013F2FEF120711F0F9
:1050700090E080E0892B09F4A5CFE0CF04EF1FEF8B
:10508000DDCF0AEF1FEFDACF0FEF1FEFD7CF4F9231
:105090005F926F927F92AF92BF92CF92DF92EF9228
:1050A000FF920F931F93CF93DF931F921F92CDB761
:1050B000DEB71A821982009709F479C0611571056B
:1050C00009F475C0209131023091320207EF1FEFD1
:1050D0002F3F3F4F09F445C06B015C01412C512C1F
:1050E0003201F12CE12C10E000E09E012F5F3F4FD8
:1050F000A6014E195F09B5016E0D7F1D8091310229
:105100009091320236D3892B09F04BC089819A8164
:10511000009741F4E114F10429F42091C5072223FA
:1051200009F442C0E80EF91EEC14FD04D0F480E44A
:10513000481682E458068FE06806710420F560E0A6
:1051400070E0CB010E946C332AE0420E511C611CBE
:10515000711C0E3F4FEF140721F0043F8FEF18072B
:10516000A1F4C8010F900F90DF91CF911F910F9183
:10517000FF90EF90DF90CF90BF90AF907F906F90B7
:105180005F904F90089502EF1FEF81E090E0023FA3
:105190002FEF120711F090E080E0892B09F4A5CFE2
:1051A000E0CF04EF1FEFDDCF0EEF1FEFDACF0FEFF1
:1051B0001FEFD7CF80913102909132028F3F980735
:1051C00049F0B7D2892B49F48FEF9FEF90933202C9
:1051D0008093310290E080E0089584EF9FEF08957E
:1051E000CF92DF92EF92FF920F931F93CF93DF93B3
:1051F00021E04115510509F020E0415051092111EC
:105200002CC0DC01FB01D12CC12C21E022C03FEFDE
:10521000C31AD30A7D010D911D91E701EA80FB803D
:10522000E016F106A8F420813181E280F380F1825A
:10523000E08233832283ED90FC9011979D012250F0
:105240003109E901F982E88211961C930E9320E05E
:105250003296C416D506D8F2D2CFDF91CF911F91E6
:105260000F91FF90EF90DF90CF900895FC01680FB1
:10527000791F90E080E0E617F70709F4089521917F
:10528000820F911DF8CF2091C607211113C045DE72
:10529000009791F41092CC071092CB071092CA0796
:1052A0001092C9071092C8071092C70721E02093F7
:1052B000C607089584EF9FEF0895AF92BF92CF92F3
:1052C000DF92EF92FF920F931F93CF93DF9300979C
:1052D00009F460C04630510508F45CC02091C6074F
:1052E000C7EFDFEF222309F449C08C01060F171F17
:1052F000F801C080D180C114D10409F44EC09601D8
:105300002A5F3F4F4217530708F447C07C01809142
:10531000CB079091CC0793838283B6016C5F7F4F5C
:105320005801A60EB71EC801A1DFF5019183808345
:1053300064E070E0C80118DEEC01892BF9F481E02B
:1053400090E007DEB601C80104960EDEEC01892B61
:1053500091F462E070E0C50107DEEC01892B59F49D
:10536000C701D9DB8091CB079091CC070196909330
:10537000CC078093CB0790E080E0EBDDCE01DF919E
:10538000CF911F910F91FF90EF90DF90CF90BF9042
:10539000AF900895CFEFDFEFF1CFC9EFDFEFEECFA2
:1053A0006F927F928F929F92AF92BF92CF92DF9235
:1053B000EF92FF920F931F93CF93DF9300D01F9232
:1053C000CDB7DEB7009709F47AC04115510509F44D
:1053D00076C02091C60707EF1FEF222309F44DC0C6
:1053E0003A017B015C0164E070E0CE0101964FDE82
:1053F0008C01892B09F041C009811A810115110521
:1054000009F45AC0480186E0880E911CB701680D66
:10541000791D809133029091340209DD6C0100976F
:1054200009F450C0A70170E060E00E947F388981D4
:105430009A81AB81BC81EC0CFD1CF70181939193A7
:10544000A193B1937F0181E090E083DDB801C701B2
:105450001EDE892B31F562E070E0C701800F911FDD
:1054600016DE8C01892BE9F490E080E072DDF50115
:10547000D182C082F30191828082C8010F900F9087
:105480000F900F90DF91CF911F910F91FF90EF90B0
:10549000DF90CF90BF90AF909F908F907F906F9054
:1054A000089590E080E055DDF50111821082F3014E
:1054B00011821082C6012FDB09EF1FEFDECF0FEF45
:1054C0001FEFDBCF06EF1FEFD8CF0097A1F04115FC
:1054D000510589F02115310571F0F90136966E17E5
:1054E0007F0748F0DC012D933C93DA01ED93FC93A8
:1054F00090E080E008958FEF9FEF0895AF92BF9204
:10550000CF92DF92EF92FF920F931F93CF93DF938F
:10551000009709F45FC04115510509F45BC065307F
:10552000710508F457C02091C607C7EFDFEF2223AB
:1055300091F1DC01CD90DC9011971296ED91FC91E8
:1055400096012A5F3F4FC9EFDFEF2617370719F59E
:10555000C091C707D091C807209749F521E030E0F6
:105560003093C8072093C7077A018C01F093CA07CC
:10557000E093C9075601B4E0AB0EB11CB50176DE6D
:105580000A0D1B1DF801208131818217930729F52F
:10559000D701CD92DC92CE01DF91CF911F910F9177
:1055A000FF90EF90DF90CF90BF90AF900895209143
:1055B000C9073091CA072F5F3F4FCCEFDFEFE217EB
:1055C000F30790F2CBEFDFEF2E173F0768F2D0E042
:1055D000C0E0CACFCFEFDFEFDECFC3EFDFEFDBCF2F
:1055E00084E090E0089582E090E008958CEF9FEFD2
:1055F000089580E290E008951092CC071092CB07B6
:105600001092CA071092C9071092C8071092C707D4
:1056100090E080E0089590933402809333020895DF
:105620008091C607882391F0C5DD009789F4109218
:10563000CC071092CB071092CA071092C90710929C
:10564000C8071092C7071092C607089590E080E03F
:105650000895009749F06115710531F0FC01118240
:105660001082FB01118210820895F3CF26E030E012
:1056700040E855E260E070E090E080E00C940202C7
:105680001F920F920FB60F9211240BB60F922F9309
:105690003F934F935F936F937F938F939F93AF93BA
:1056A000BF93EF93FF938FE89DEF90932501809335
:1056B0002401C0D0FF91EF91BF91AF919F918F9145
:1056C0007F916F915F914F913F912F910F900BBE02
:1056D0000F900FBE0F901F9018958FE89DEF90933D
:1056E000250180932401A3E7B0E08C918E7F8C93F9
:1056F000E0E2F1E080818C7F8083E1E2F1E0808173
:10570000877E808380818460808380818C7F80839A
:105710008C9181608C930895E3E7F0E08081908123
:105720009E7F90838170089581E008951092CD0747
:10573000089568EE73E080E090E0CED790E080E0DE
:10574000089526E030E040E050E16EE070E090E047
:1057500080E00E94020284EA98E00E949734892B3C
:1057600029F084EA98E00E94B134F5CF90E080E01F
:105770000895CF92DF92EF92FF920F931F93CF93F2
:10578000DF936B017A01E9011982188284EA98E0BB
:105790000E949734892B79F18601CC24C39482E04E
:1057A000D82E8091CD07811111C084EA98E00E9423
:1057B000B1340297B1F7C092CD07F801D1928F01B1
:1057C00088819981019699838883EBCF888199811B
:1057D0008E159F0580F484EA98E00E94B1348F3FD3
:1057E0009807A1F3F80181938F018881998101962F
:1057F00099838883EBCF90E080E0DF91CF911F9178
:105800000F91FF90EF90DF90CF9008950F931F932B
:10581000CF93DF93EA01890184EA98E00E94F1378F
:10582000F801D183C08390E080E0DF91CF911F9198
:105830000F910895CF92DF92EF92FF928091CE0761
:1058400091E0980F9093CE07882369F021E030E033
:105850003093D0072093CF078093CE07FF90EF902F
:10586000DF90CF9008957894E0913602F09137025E
:10587000C28CD38CE48CF58C0E94D003B701A601B6
:1058800090E080E00E943F03F8948091CE07815021
:10589000E3CF0F931F93CF93DF9310928F0B109250
:1058A0008E0B50D7E3DEC0913602D09137021982B9
:1058B000188268EE73E080E090E00E94C50370E01B
:1058C00060E090E080E00E944002009709F03AC05A
:1058D0000E948E07F8947894BE016E5D7F4F8A8196
:1058E0009B810E944302892B59F46FEF7FEFCB011C
:1058F0000E94D4020E94BF03882311F081E08EA38E
:10590000F894EBDE0E94C203882311F080E008C007
:105910000E94BF038111FACF81E09EA19111F6CFC1
:1059200080938E0B78940E944C138C017894809114
:105930008E0B81110CC00E94B30C0E94A303F8943B
:1059400090E080E0DF91CF911F910F9108950E9428
:10595000A0030E94C2038823D9F081E080938F0BBB
:1059600090918F0B81E0911180E080938E0B80915C
:105970008F0B8111D1DE0130110529F40E944C13E7
:10598000892B09F4D3DE0E944C138C01CDDECFCFDE
:105990000E94BF038111E1CF81E09EA19111DECF72
:1059A00080E0DCCF40D008F481E00895E89409C09D
:1059B00097FB3EF490958095709561957F4F8F4F42
:1059C0009F4F9923A9F0F92F96E9BB279395F69558
:1059D000879577956795B795F111F8CFFAF4BB0FD6
:1059E00011F460FF1BC06F5F7F4F8F4F9F4F16C03A
:1059F000882311F096E911C0772321F09EE8872FC4
:105A0000762F05C0662371F096E8862F70E060E07F
:105A10002AF09A95660F771F881FDAF7880F9695F8
:105A2000879597F90895990F0008550FAA0BE0E89C
:105A3000FEEF16161706E807F907C0F01216130650
:105A4000E407F50798F0621B730B840B950B39F490
:105A50000A2661F0232B242B252B21F408950A26F6
:105A600009F4A140A6958FEF811D811D0895DBDF0C
:105A700008F48FEF08950BD078C069D028F06ED06D
:105A800018F0952309F05AC05FC01124A2C07ED03F
:105A9000A0F3959FD1F3950F50E0551F629FF00141
:105AA000729FBB27F00DB11D639FAA27F00DB11D9A
:105AB000AA1F649F6627B00DA11D661F829F222723
:105AC000B00DA11D621F739FB00DA11D621F839FAA
:105AD000A00D611D221F749F3327A00D611D231F80
