:1000000058C000007EC000007CC000007AC0000024
:1000100078C0000076C0000074C0000072C000000C
:1000200070C000006EC000006CC000006AC000001C
:1000300068C0000066C0000064C0000062C000002C
:100040000C94435C5EC000000C941D630C944963E7
:1000500058C0000056C0000054C0000052C000004C
:100060000C940B5A4EC00000000000002500280030
:100070002B00040404040404040402020202020229
:10008000030303030303010204081020408001025C
:1000900004081020010204081020000000080002DB
:1000A00001000003040700000000000000003055BC
:1000B000B06311241FBECFEFD8E0DEBFCDBF11E08B
:1000C000A0E0B1E0E4E7F9EC02C005900D92A83F92
:1000D000B107D9F726E0A8EFB1E001C01D92A13623
:1000E000B207E1F710E0C9E5D0E004C02197FE01B6
:1000F0000E945664C735D107C9F70E94AF4F0C94D0
:10010000B8647ECFCF93DF9300D000D000D0CDB7BE
:10011000DEB769837A838B839C835E834D83898179
:100120009A81AB81BC81892B8A2B8B2B21F589810C
:100130009A81880F991F880F991F80509F4FFC014B
:1001400080818823C1F489819A81880F991F880F43
:10015000991F8E5F9E4FFC01808191810E948B527E
:1001600089819A81880F991F880F991F80509F4F0E
:1001700021E0FC01208389819A81880F991F880FD3
:10018000991F80509F4F26960FB6F894DEBF0FBE82
:10019000CDBFDF91CF910895CF93DF9300D000D0F2
:1001A00000D0CDB7DEB79A8389834B835C836D83A0
:1001B0007E8389819A81892BF9F089819A81FC015A
:1001C0008181882341F480EA96E8A1E0B0E08B8346
:1001D0009C83AD83BE8389819A81FC012281338116
:1001E0008B819C81AD81BE81AC01BD01C9010E94A2
:1001F000A75280E090E002C088E090E026960FB61B
:10020000F894DEBF0FBECDBFDF91CF910895CF929E
:10021000EF920F931F93CF93DF93CDB7DEB7629723
:100220000FB6F894DEBF0FBECDBF98878F837A8755
:1002300069875C874B870D871E872F87388BE98AF4
:10024000CA8A8F819885892B09F49DC08F819885F2
:10025000FC01828193813D852985432F622F0E9475
:10026000605319821A821B821C828F819885FC013F
:10027000428153818F819885FC0182819381FC01A9
:10028000808191810896FC0120813181CA01F901A8
:10029000099521E0892B09F420E0222309F465C0A7
:1002A0008F819885FC01428153818F819885FC0163
:1002B00082819381FC01808191810896FC012081DB
:1002C0003181CA01F9010995892B79F029813A8197
:1002D0004B815C818D859E85AF85B889281739074C
:1002E0004A075B0710F481E001C080E0882309F42D
:1002F00047C08F819885FC01428153818F81988509
:10030000FC0182819381FC01808191810A96FC012C
:1003100020813181CA01F90109959E838D838D81E8
:100320009E81019659F48B859C8544E050E060E005
:1003300070E00E94B16488E090E027C089819A81D2
:10034000AB81BC819C01AD012F5F3F4F4F4F5F4F91
:1003500029833A834B835C839C018B859C85820F28
:10036000931F2D81FC0120839BCF8B859C8544E0CE
:1003700050E060E070E00E94B16488E090E005C069
:1003800080E090E002C088E090E062960FB6F894BA
:10039000DEBF0FBECDBFDF91CF911F910F91EF90C8
:1003A000CF900895CF92EF920F931F93CF93DF9347
:1003B000CDB7DEB72D970FB6F894DEBF0FBECDBF19
:1003C0009B838A837D836C835F834E830887198731
:1003D0002A873B87EC86CD868A819B81892B09F40D
:1003E0004FC019828A819B81DC0112968D919C916C
:1003F0002C81622F0E9477538A819B81DC011296A7
:10040000ED91FC918A819B81DC0112968D919C91EA
:10041000DC018D919C910296DC012D913C914885E7
:1004200059858E819F81BC01CF01F90109958C8589
:10043000882359F08A819B81DC0112968D919C91D1
:1004400060E00E949153898309C08A819B81FC01ED
:100450008281938161E00E949153898389818823FD
:1004600019F480E090E00EC08981823019F0898112
:10047000833019F484E090E005C088E090E002C089
:1004800088E090E02D960FB6F894DEBF0FBECDBF8A
:10049000DF91CF911F910F91EF90CF900895CF935F
:1004A000DF9300D0CDB7DEB79A83898300000F9029
:1004B0000F90DF91CF910895CF93DF93CDB7DEB743
:1004C0002A970FB6F894DEBF0FBECDBF9C838B83F7
:1004D0004D835E836F8378873A8729871092F9016D
:1004E0001092F80189859A859A8389838B819C81F2
:1004F0008130910559F1823091051CF4892B41F02E
:1005000063C082309105A1F1039709F443C05CC038
:100510008091F8019091F90181709927892B09F058
:100520004CC08091F8019091F90181609093F9019C
:100530008093F80129818D819E81AF81B885AC01BE
:10054000BD0187E895E00E94A55F3EC08091F8015B
:100550009091F90182709927892B89F58091F80192
:100560009091F90182609093F9018093F8012CC079
:100570008091F8019091F90184709927892B09F5F0
:100580008091F8019091F90184609093F901809332
:10059000F8011AC08091F8019091F90188709927AB
:1005A000892B89F48091F8019091F90188609093EA
:1005B000F9018093F801000007C0000005C00000A9
:1005C00003C0000001C000002A960FB6F894DEBFF9
:1005D0000FBECDBFDF91CF910895EF92FF920F93A1
:1005E0001F93CF93DF93CDB7DEB728970FB6F8945C
:1005F000DEBF0FBECDBF6D837E838F839887198248
:100600001A821B821C820E94B45CDC01CB018983AC
:100610009A83AB83BC830E94B45C9B01AC0189814B
:100620009A81AB81BC8179018A01E81AF90A0A0B27
:100630001B0BD801C70161E02D813E814F81588598
:10064000281739074A075B0708F460E0662309F0BA
:10065000E2CF000028960FB6F894DEBF0FBECDBFE4
:10066000DF91CF911F910F91FF90EF900895CF935D
:10067000DF93CDB7DEB70E94B45CDC01CB01BC01D7
:10068000CD01DF91CF910895CF93DF9300D000D0BB
:1006900000D0CDB7DEB79C838B837E836D831A82B7
:1006A000198289819A8126960FB6F894DEBF0FBE13
:1006B000CDBFDF91CF910895CF93DF93CDB7DEB754
:1006C00028970FB6F894DEBF0FBECDBF9E838D83F3
:1006D00078876F831C821B828D819E81892B19F400
:1006E0008FEF9FEFB2C08F819885892B19F48FEF20
:1006F0009FEFABC08091080190910901A0910A0180
:10070000B0910B018E3F9F4FAF4FBF4F61F48FEF02
:100710009FEFDC018093080190930901A0930A01E7
:10072000B0930B010FC08091080190910901A09135
:100730000A01B0910B012F813885F90180839183E3
:10074000A283B3838091080190910901A0910A01CD
:10075000B0910B018D819E81FC0182819381FC010E
:1007600080819181A281B38180933B0290933C026E
:10077000A0933D02B0933E028D819E81FC01828157
:100780009381FC0184819581A681B78180933F028A
:1007900090934002A0934102B09342028D819E81CA
:1007A000FC0182819381FC0180859185A285B385BE
:1007B0008093430290934402A0934502B093460273
:1007C0008D819E81FC0182819381FC0184859585C8
:1007D000A685B7858093470290934802A09349026B
:1007E000B0934A0210924B0210924C0210924D02AA
:1007F00010924E020E9406151A8219821A821982DC
:1008000010C089819A81880F991F86509E4F21E3DD
:1008100035E1FC013183208389819A8101969A8395
:10082000898389819A81029760F30E9408109C83D2
:100830008B838B819C81892B31F481E090E09093B4
:100840003A02809339028B819C8128960FB6F894E6
:10085000DEBF0FBECDBFDF91CF910895CF93DF9361
:10086000CDB7DEB72C970FB6F894DEBF0FBECDBF65
:1008700069877A878B879C871A8219821B821C82E0
:100880001D821E821F829091370281E0992309F018
:1008900080E0888782E090E090933A02809339026A
:1008A00089859A85AB85BC85892B8A2B8B2B59F43E
:1008B00080913702882339F480913802882319F413
:1008C00081E090E002C080E090E08F8331C06AE078
:1008D00070E080E090E00E943F5D8B819C81AD8163
:1008E000BE81805F984DAF4FBF4F8B839C83AD839C
:1008F000BE8389859A85AB85BC858F3F9F4FAF4F5F
:10090000BF4F81F02B813C814D815E8189859A8525
:10091000AB85BC8582179307A407B50718F481E05F
:1009200090E002C080E090E08F8380E00E94511050
:1009300080913702882339F480913802882319F492
:100940008F81882321F283E090E090933A02809394
:1009500039028F81882321F08CE99FEF9A83898364
:100960008885882311F00E942E1689819A812C9601
:100970000FB6F894DEBF0FBECDBFDF91CF910895C3
:10098000CF93DF93CDB7DEB761970FB6F894DEBF94
:100990000FBECDBF9D878C874E875F87688B798B15
:1009A0001A82198281E08B838C859D858F3F91050A
:1009B00021F018F08FEF9FEF63C080913902909182
:1009C0003A02039731F08091390290913A020197EF
:1009D00031F484E090E090933A02809339028C8560
:1009E0009D85029708F58C859D85880F991F8650F7
:1009F0009E4FFC0180819181892BB1F00E94ED1AFC
:100A00009D838C838C819D81029771F48C859D855B
:100A1000880F991F86509E4FFC01208131818C8563
:100A20009D85F90109958B838C859D859F838E8398
:100A30002C853D858E859F85A889B989A901BC0132
:100A4000CD010E94E40FDC01CB0188879987AA873A
:100A5000BB878B81882371F088859985AA85BB85A2
:100A60002E813F81AC01BD01C9010E94BB1A9A834E
:100A7000898304C08E819F810E94301B89819A8165
:100A800061960FB6F894DEBF0FBECDBFDF91CF9158
:100A90000895CF93DF9300D0CDB7DEB71A821982C5
:100AA00080E00E9451109A83898389819A810F90F6
:100AB0000F90DF91CF910895CF93DF9300D0CDB702
:100AC000DEB71A82198286E090E090933A02809312
:100AD00039020E94E1109A83898344E050E060E08B
:100AE00070E08AEF91E00E94B1640E94C0151092FC
:100AF0003A021092390289819A810F900F90DF910A
:100B0000CF910895CF93DF93CDB7DEB780913802B0
:100B1000DF91CF910895CF93DF93CDB7DEB780916A
:100B20004F02DF91CF910895CF93DF9300D000D093
:100B3000CDB7DEB769837A838B839C8389819A8161
:100B4000AB81BC818093080190930901A0930A01B5
:100B5000B0930B0180E090E00F900F900F900F90FA
:100B6000DF91CF910895CF93DF9300D000D0CDB720
:100B7000DEB79C838B838B819C81FC01138E8B81E0
:100B80009C81FC01158E8B819C81FC01118212825B
:100B9000138214822B813C8180E090E0A0E8BFEBBF
:100BA000F90186839783A087B1878B819C81FC01A3
:100BB00012868B819C819A8389832B813C8180E082
:100BC00090E5A3ECB8E4F901868B978BA08FB18FE9
:100BD0008B819C81FC0114861586168617868B8175
:100BE0009C81FC01118A108A8B819C81FC011386F7
:100BF0008B819C81FC01108289819A810F900F90DA
:100C00000F900F90DF91CF910895CF92EF920F93B5
:100C10001F93CF93DF93CDB7DEB72F970FB6F8941E
:100C2000DEBF0FBECDBF9F878E872E853F8581E0BB
:100C300090E0A0E0B0E0F90181839283A383B483C4
:100C40008E859F8521E0FC01248F1A8219821B82E8
:100C50001C821D821E8229813A818B819C81AD81FB
:100C6000BE81A901BC01CD014DDA9C018E859F8515
:100C7000FC01318B208B2E853F8580EA96E8A1E030
:100C8000B0E0F901828B938BA48BB58B8E859F8509
:100C9000FC0182899389A489B5892E853F85F90154
:100CA00020893189AC01BD01C90176DA80E88C87E1
:100CB0008C858A878BE689879E01275F3F4FCE010F
:100CC000079642E050E0B9010E94A8648E859F8596
:100CD000FC0180899189AE01495F5F4FC12CE12CF5
:100CE00002E010E020E030E068E670E05BDB8D873A
:100CF0008D858823B9F08E859F85FC01848D88239E
:100D000031F08E859F8521E0FC01258F0BC08E85FB
:100D10009F85FC01838D882329F42D858E859F85F1
:100D2000FC01238F61E070E080E090E056DC1C86DF
:100D30008C858A878BE689879E01275F3F4FCE018E
:100D4000079642E050E0B9010E94A8648E859F8515
:100D5000FC0180899189AE01495F5F4FC12CE12C74
:100D600002E010E020E030E068E670E01BDB8D87F9
:100D70008D858823B9F08E859F85FC01848D88231D
:100D800031F08E859F8521E0FC01258F0BC08E857B
:100D90009F85FC01838D882329F42D858E859F8571
:100DA000FC01238F64E670E080E090E016DC85E7CC
:100DB0008D878D858B878E859F85FC0180899189A4
:100DC000AE01455F5F4FC12CEE24E39401E010E0DB
:100DD00020E030E068E670E0E5DA8D878D858823D5
:100DE000A9F48E859F85FC0180899189AE01455FBC
:100DF0005F4FCC24C394E12C01E010E020E030E010
:100E000068E670E004DA8B858C8701C01C868D85CE
:100E10008823B9F08E859F85FC01848D882331F06D
:100E20008E859F8521E0FC01258F0BC08E859F85D7
:100E3000FC01838D882329F42D858E859F85FC01F7
:100E4000238F9C8581E0983609F080E0282F8E85DD
:100E50009F85FC01228F8E859F85FC01828D8823D2
:100E600009F4D2C11C868C858A8789E189879E0115
:100E7000275F3F4FCE01079642E050E0B9010E9444
:100E8000A8648E859F85FC0180899189AE01495FA8
:100E90005F4FC12CE12C02E010E020E030E068E67A
:100EA00070E080DA8D878D858823B9F08E859F85E7
:100EB000FC01848D882331F08E859F8521E0FC0123
:100EC000258F0BC08E859F85FC01838D882329F497
:100ED0002D858E859F85FC01238F8CE18D878D85E7
:100EE0008B878E859F85FC0180899189AE01455F46
:100EF0005F4FC12CEE24E39401E010E020E030E0ED
:100F000068E670E04FDA8D878D858823A9F48E8599
:100F10009F85FC0180899189AE01455F5F4FCC249C
:100F2000C394E12C01E010E020E030E068E670E0DE
:100F30006ED98B858C8701C01C868D858823B9F07E
:100F40008E859F85FC01848D882331F08E859F8559
:100F500021E0FC01258F0BC08E859F85FC01838DD0
:100F6000882329F42D858E859F85FC01238F8C8510
:100F7000877E8C878C858A878CE189879E01275F95
:100F80003F4FCE01079642E050E0B9010E94A864AD
:100F90008E859F85FC0180899189AE01495F5F4FF5
:100FA000C12CE12C02E010E020E030E068E670E0C7
:100FB000F9D98D878D858823B9F08E859F85FC01B1
:100FC000848D882331F08E859F8521E0FC01258F5B
:100FD0000BC08E859F85FC01838D882329F42D8588
:100FE0008E859F85FC01238F8BE18D878D858B8777
:100FF0008E859F85FC0180899189AE01455F5F4F99
:10100000C12CEE24E39401E010E020E030E068E63B
:1010100070E0C8D98D878D858823A9F48E859F853A
:10102000FC0180899189AE01455F5F4FCC24C39458
:10103000E12C01E010E020E030E068E670E0E7D865
:101040008B858C8701C01C868D858823B9F08E85A1
:101050009F85FC01848D882331F08E859F8521E05A
:10106000FC01258F0BC08E859F85FC01838D882315
:1010700029F42D858E859F85FC01238F8C85877EA5
:101080008C878C858A878BE189879E01275F3F4FFC
:10109000CE01079642E050E0B9010E94A8648E8517
:1010A0009F85FC0180899189AE01495F5F4FC12C0A
:1010B000E12C02E010E020E030E068E670E072D958
:1010C0008D878D858823B9F08E859F85FC01848D61
:1010D000882331F08E859F8521E0FC01258F0BC090
:1010E0008E859F85FC01838D882329F42D858E852F
:1010F0009F85FC01238F8AE18D878D858B878E8567
:101100009F85FC0180899189AE01455F5F4FC12CAD
:10111000EE24E39401E010E020E030E068E670E0C7
:1011200041D98D878D858823A9F48E859F85FC0103
:1011300080899189AE01455F5F4FCC24C394E12C37
:1011400001E010E020E030E068E670E060D88B85D8
:101150008C8701C01C868D858823B9F08E859F857C
:10116000FC01848D882331F08E859F8521E0FC0170
:10117000258F0BC08E859F85FC01838D882329F4E4
:101180002D858E859F85FC01238F8C85887F8160CE
:101190008C878C858A878AE189879E01275F3F4FEC
:1011A000CE01079642E050E0B9010E94A8648E8506
:1011B0009F85FC0180899189AE01495F5F4FC12CF9
:1011C000E12C02E010E020E030E068E670E0EAD8D0
:1011D0008D878D858823E9F08E859F85FC01848D20
:1011E000882331F08E859F8521E0FC01258F11C079
:1011F0008E859F85FC01838D882359F42D858E85EE
:101200009F85FC01238F05C08E859F8521E0FC0111
:10121000258F8E859F85FC01148E8E859F8521E00C
:10122000FC01258300002F960FB6F894DEBF0FBE99
:10123000CDBFDF91CF911F910F91EF90CF90089587
:10124000CF92DF92EF92FF920F931F93CF93DF9392
:10125000CDB7DEB766970FB6F894DEBF0FBECDBF31
:1012600080912A0690912B06A0912C06B0912D0614
:101270002091040130910501409106015091070130
:10128000BC01CD010E948050882381F0809104012F
:1012900090910501A0910601B091070180932A0663
:1012A00090932B06A0932C06B0932D0680912E06CA
:1012B000882321F4DCD981E080932E0610923F062A
:1012C0008FE296E09C838B838BE38E8B8E898D8B54
:1012D0008B819C81FC0185819681AE014B5E5F4FC5
:1012E000C12CEE24E39401E010E020E030E068E659
:1012F00070E058D88E8B8E898823F1F48B819C8185
:10130000FC0185819681AE01455F5F4FCC24C3947B
:10131000E12C06E010E020E030E068E670E00E949A
:1013200007019E01255F3F4FCE01059646E050E044
:10133000B9010E94A86415C01A8219820EC09E01CC
:101340002B5F3F4F89819A81820F931FFC0110828E
:1013500089819A8101969A83898389819A810697E6
:1013600074F38E89882379F080914006882321F0D8
:1013700081E08093410607C080913F06882319F4DD
:101380008E8980933F068D81882F90E0382F222709
:101390008E81882F90E0822B932B092E000CAA0BB4
:1013A000BB0BBC01CD010E94EE50DC01CB01809350
:1013B000460690934706A0934806B09349068F814E
:1013C000882F90E0382F22278885882F90E0822B65
:1013D000932B092E000CAA0BBB0BBC01CD010E9464
:1013E000EE50DC01CB0180934A0690934B06A0930C
:1013F0004C06B0934D068985882F90E0382F222720
:101400008A85882F90E0822B932B092E000CAA0B43
:10141000BB0BBC01CD010E94EE50DC01CB018093DF
:101420004E0690934F06A0935006B09351068091BC
:1014300041068823C9F01092460610924706109282
:1014400048061092490610924A0610924B061092D6
:101450004C0610924D0610924E0610924F061092B6
:101460005006109251066CC0809146069091470636
:10147000A0914806B09149062AE038EE4CE151E4CB
:10148000BC01CD010E94A251DC01CB0120E030E083
:1014900040E856E4BC01CD010E948450DC01CB0140
:1014A0008093460690934706A0934806B09349065A
:1014B00080914A0690914B06A0914C06B0914D0642
:1014C0002AE038EE4CE151E4BC01CD010E94A2516A
:1014D000DC01CB0120E030E040E856E4BC01CD0166
:1014E0000E948450DC01CB0180934A0690934B0606
:1014F000A0934C06B0934D0680914E0690914F06F6
:10150000A0915006B09151062AE038EE4CE151E42A
:10151000BC01CD010E94A251DC01CB0120E030E0F2
:1015200040E856E4BC01CD010E948450DC01CB01AF
:1015300080934E0690934F06A0935006B0935106A9
:1015400083E48E8B8E898D8B8B819C81FC018581C0
:101550009681AE014B5E5F4FC12CEE24E39401E017
:1015600010E020E030E068E670E00E94D2018E8B4F
:101570008E898823F1F48B819C81FC018581968181
:10158000AE01455F5F4FCC24C394E12C06E010E030
:1015900020E030E068E670E00E9407019E01255FD0
:1015A0003F4FCE01059646E050E0B9010E94A86485
:1015B00015C01A8219820EC09E012B5F3F4F898190
:1015C0009A81820F931FFC01108289819A81019672
:1015D0009A83898389819A81069774F38E898823F7
:1015E00079F080914006882321F081E080934106C4
:1015F00007C080913F06882319F48E8980933F06A7
:101600008D81882F90E0382F22278E81882F90E0BF
:10161000822B932B092E000CAA0BBB0BBC01CD0116
:101620000E94EE50DC01CB0180935206909353064A
:10163000A0935406B09355068F81882F90E0382FE1
:1016400022278885882F90E0822B932B092E000C6F
:10165000AA0BBB0BBC01CD010E94EE50DC01CB01FB
:101660008093560690935706A0935806B093590658
:101670008985882F90E0382F22278A85882F90E04F
:10168000822B932B092E000CAA0BBB0BBC01CD01A6
:101690000E94EE50DC01CB0180935A0690935B06CA
:1016A000A0935C06B0935D06809141068823C9F043
:1016B000109252061092530610925406109255063C
:1016C000109256061092570610925806109259061C
:1016D00010925A0610925B0610925C0610925D06FC
:1016E0004EC08091520690915306A0915406B0913D
:1016F000550620E030E04AEF5BE3BC01CD010E94DB
:10170000A251DC01CB018093520690935306A09323
:101710005406B09355068091560690915706A091B5
:101720005806B091590620E030E04AEF5BE3BC0177
:10173000CD010E94A251DC01CB018093560690930B
:101740005706A0935806B093590680915A06909177
:101750005B06A0915C06B0915D0620E030E04AEFA8
:101760005BE3BC01CD010E94A251DC01CB0180935F
:101770005A0690935B06A0935C06B0935D0681E4E5
:101780008E8B8E898D8B8B819C81FC0185819681CE
:10179000AE014B5E5F4FC12CEE24E39401E010E0FC
:1017A00020E030E068E670E00E94D2018E8B8E89E6
:1017B0008823E9F48B819C81FC0185819681AE01AF
:1017C0004D5E5F4FCC24C394E12C02E010E020E09A
:1017D00030E068E670E00E9407019E012D5E3F4FF9
:1017E000CE01419642E050E0B9010E94A8648E8982
:1017F000882379F080914006882321F081E080934E
:10180000410607C080913F06882319F48E89809392
:101810003F0680914106882321F080E280935E0696
:1018200004C080913F0680935E062EEF31E0F901FF
:10183000828D938DA48DB58D0196A11DB11DF901E9
:10184000828F938FA48FB58FF901828D938DA48D94
:10185000B58DBC01CD010E94EC506B017C018EEF77
:1018600091E0FC01868D978DA0A1B1A10EEF11E052
:101870009C01AD01C701B6010E94A251DC01CB0160
:10188000F801868B978BA08FB18F000066960FB6FC
:10189000F894DEBF0FBECDBFDF91CF911F910F91A6
:1018A000FF90EF90DF90CF900895CF93DF93CDB767
:1018B000DEB72EEF31E080E090E0A0E2B1E4F90184
:1018C00082A393A3A4A3B5A32EEF31E08DEC9CECEF
:1018D000ACE4BEE3F901868F978FA0A3B1A32EEFEE
:1018E00031E088E99DEFA7E5BDE3F90184839583A5
:1018F000A683B7832EEF31E083E095E2A0E6BEE950
:10190000F90180879187A287B3872EEF31E08FE7B7
:1019100094E8A5E1B9E3F90184879587A687B7879D
:101920002EEF31E08DE990EEA9EFB2E8F901808B5E
:10193000918BA28BB38B8EEF91E025E232E0FC011C
:101940003383228381E392E09093260280932502E1
:1019500087E391E0909332028093310287E391E034
:10196000909334028093330287E391E090933602A0
:10197000809335022EEF31E08EEF91E0FC01828101
:1019800093812C5E3F4FFC01358324832EEF31E0A1
:101990008EEF91E0FC01828193812C5F3F4FFC012F
:1019A000338322832EEF31E08EEF91E0FC018281C0
:1019B00093812A5E3F4FFC013783268381E0809329
:1019C0002F0681E08093240684E296E0CCD88091B3
:1019D000040190910501A0910601B0910701809347
:1019E0002A0690932B06A0932C06B0932D0684E232
:1019F00096E00BD90000DF91CF910895CF93DF934C
:101A000000D0CDB7DEB7809124068823F1F481E0C1
:101A1000809324068091250690912606A0912706A2
:101A2000B09128060197A105B10579F480912906A6
:101A3000882359F08FE296E09A83898389819A817D
:101A4000FC01858196810E944F028FE296E09A8385
:101A5000898389819A81FC0180818823D9F48981D5
:101A60009A8121E0FC01208389819A81FC01818196
:101A70009281A381B4810197A105B10559F429810F
:101A80003A8182E090E0A0E0B0E0F90181839283A6
:101A9000A383B48300000F900F90DF91CF9108953E
:101AA0000F931F93CF93DF93CDB7DEB72A970FB66F
:101AB000F894DEBF0FBECDBF9A8389834B835C83CE
:101AC0006D837E830F83188729873A8729813A811E
:101AD0008B819C81AD81BE81F90180839183A2833A
:101AE000B38389819A819C012C5F3F4F8F819885B8
:101AF000A985BA85F90180839183A283B38300000D
:101B00002A960FB6F894DEBF0FBECDBFDF91CF91FE
:101B10001F910F910895EF92FF920F931F93CF9310
:101B2000DF93CDB7DEB76A970FB6F894DEBF0FBE6E
:101B3000CDBF6D8B7E8B8F8B988F5A8F498F19827B
:101B40001A821B821C82F894898D9A8D892B09F048
:101B50000EC180915C0290915D02A0915E02B091F5
:101B60005F022D893E894F89588D281739074A070A
:101B70005B07C8F080915C0290915D02A0915E02CB
:101B8000B0915F022D893E894F89588D79018A0174
:101B9000E81AF90A0A0B1B0BD801C7018D839E8333
:101BA000AF83B88718C080915C0290915D02A091CC
:101BB0005E02B0915F022D893E894F89588D79016F
:101BC0008A01E81AF90A0A0B1B0BD801C7018D8399
:101BD0009E83AF83B8878091600290916102A0914B
:101BE0006202B09163022D813E814F815885820F40
:101BF000931FA41FB51F898B9A8BAB8BBC8B8091D5
:101C0000600290916102A0916202B0916302298901
:101C10003A894B895C89281739074A075B0798F48A
:101C20008091640290916502A0916602B091670272
:101C30000196A11DB11D8093640290936502A0934B
:101C40006602B093670289899A89AB89BC898093BF
:101C5000600290936102A0936202B09363022091AC
:101C60006402309165024091660250916702809152
:101C7000600290916102A0916202B09163028901B9
:101C80009A01AC01BD0184E592E00ADF8D899E894D
:101C9000AF89B88D80935C0290935D02A0935E0241
:101CA000B0935F028D819E81AF81B8859C01AD01AB
:101CB00060E47DE083E090E00E9411649B01AC0150
:101CC0008091680290916902A0916A02B0916B02C2
:101CD000820F931FA41FB51F80936802909369021F
:101CE000A0936A02B0936B0280916802909169029E
:101CF000A0916A02B0916B0289839A83AB83BC8303
:101D00008091080190910901A0910A01B0910B0105
:101D10008F3F9F4FAF4FBF4F09F442C180910801E1
:101D200090910901A0910A01B0910B018E3F9F4F44
:101D3000AF4FBF4F09F434C120916002309161026E
:101D400040916202509163028091080190910901D3
:101D5000A0910A01B0910B0161E0281739074A07E9
:101D60005B0708F460E0862F80934F0219C1198643
:101D70001A861B861C861D861E861F86188A8091E1
:101D80000C0190910D01A0910E01B0910F018F3FB8
:101D90009F4FAF4FBF4FE1F080910C0190910D012B
:101DA000A0910E01B0910F019C01AD012F5F3F4F3B
:101DB0004F4F5F4F8D899E89AF89B88DBC01CD0192
:101DC0000E943464DC01CB018D8B9E8BAF8BB88F6E
:101DD00080915C0290915D02A0915E02B0915F02E1
:101DE0002D893E894F89588D281739074A075B0787
:101DF00008F447C080915C0290915D02A0915E0260
:101E0000B0915F022D893E894F89588D79018A01F1
:101E1000E81AF90A0A0B1B0BD801C70189879A87B0
:101E2000AB87BC8720915C0230915D0240915E02DD
:101E300050915F028D899E89AF89B88D79018A01A1
:101E4000E81AF90A0A0B1B0BD801C7018D879E8778
:101E5000AF87B88B2D853E854F85588989859A85B2
:101E6000AB85BC8582179307A407B50728F01986B0
:101E70001A861B861C864BC01D861E861F86188AE6
:101E800046C080915C0290915D02A0915E02B0918B
:101E90005F022D893E894F89588D79018A01E81AA0
:101EA000F90A0A0B1B0BD801C70189879A87AB87F0
:101EB000BC8720915C0230915D0240915E0250919E
:101EC0005F028D899E89AF89B88D79018A01E81AF0
:101ED000F90A0A0B1B0BD801C7018D879E87AF87B4
:101EE000B88B2D853E854F85588989859A85AB8528
:101EF000BC8582179307A407B50728F019861A86B0
:101F00001B861C8604C01D861E861F86188A89852E
:101F10009A85AB85BC85892B8A2B8B2BF9F089851B
:101F20009A85AB85BC859C01AD0160E47DE083E0D2
:101F300090E00E9411649B01AC0180916802909135
:101F40006902A0916A02B0916B02820F931FA41FD5
:101F5000B51F89839A83AB83BC8322C0E09068025B
:101F6000F090690200916A0210916B028D859E8546
:101F7000AF85B8899C01AD0160E47DE083E090E02D
:101F80000E941164DC01CB01A8019701281B390BC9
:101F90004A0B5B0BDA01C90189839A83AB83BC834B
:101FA000789489819A81AB81BC81BC01CD016A960C
:101FB0000FB6F894DEBF0FBECDBFDF91CF911F915A
:101FC0000F91FF90EF900895CF93DF9300D000D052
:101FD00000D0CDB7DEB769837A838B839C835E8321
:101FE0004D832D813E8189819A81AB81BC81A9017C
:101FF000BC01CD0190DDDC01CB01BC01CD012696F9
:102000000FB6F894DEBF0FBECDBFDF91CF9108951C
:10201000CF93DF9300D000D000D0CDB7DEB71C82C5
:102020001B821E821D821A82198210925002109207
:10203000510210925202109253029E012B5F3F4FA9
:10204000CE010396B9010E946A4D2D813E818B819C
:102050009C81B9010E94DE3A9A83898389819A81A1
:10206000892B19F089819A8113C09E012B5F3F4F04
:10207000CE010396B9010E948E4D2D813E818B8148
:102080009C81B9010E948F199A83898389819A81E1
:1020900026960FB6F894DEBF0FBECDBFDF91CF916D
:1020A0000895CF93DF9300D000D01F92CDB7DEB755
:1020B0008D831A8219821B8260E070E0CB010E943E
:1020C0003F5D1C820E94AA3C9A83898389819A8100
:1020D000892B39F089819A81029619F081E08B83EE
:1020E0000DC08C81882321F489819A81029619F090
:1020F00081E090E002C080E090E08C838B818823B7
:10210000E1F40E94C2199A83898389819A81892B7B
:1021100039F089819A81029619F081E08B830DC094
:102120008C81882321F489819A81029619F081E0BB
:1021300090E002C080E090E08C838B818823E1F402
:102140000E94333C9A83898389819A81892B39F053
:1021500089819A81029619F081E08B830DC08C8170
:10216000882321F489819A81029619F081E090E018
:1021700002C080E090E08C838D81882391F060E044
:1021800070E0CB010E943F5D8B81882319F48C8124
:10219000882319F481E090E002C080E090E08B8316
:1021A00002C081E08B838B81882309F48ACF8981E7
:1021B0009A810F900F900F900F900F90DF91CF9119
:1021C0000895CF93DF93CDB7DEB728970FB6F89475
:1021D000DEBF0FBECDBF18861F8280914F028823BD
:1021E00029F060E070E0CB010E94101B0E94ED1A04
:1021F0009E838D8319821A821B821C8218C06AE01A
:1022000070E080E090E00E943F5D89819A81AB811F
:10221000BC81805F984DAF4FBF4F89839A83AB835A
:10222000BC8381E03EDF0E94ED1A9E838D8389810D
:102230009A81AB81BC8181159D42A143B14020F4BC
:102240008D819E81892BD9F60E94F81A98878F83F9
:102250000E94453E98878F83109237021092380271
:1022600010923B0210923C0210923D0210923E02EC
:1022700010923F02109240021092410210924202CC
:1022800010924302109244021092450210924602AC
:1022900010924702109248021092490210924A028C
:1022A00010924B0210924C0210924D0210924E026C
:1022B0008EEF9FEFAFEFBFEF80930801909309017E
:1022C000A0930A01B0930B0110924F0248E050E036
:1022D00060E070E084E592E00E94B16410925C02DC
:1022E00010925D0210925E0210925F0210926002E4
:1022F00010926102109262021092630210926402C4
:1023000010926502109266021092670210926802A3
:102310001092690210926A0210926B028F81988566
:1023200028960FB6F894DEBF0FBECDBFDF91CF91D8
:102330000895CF93DF93CDB7DEB728970FB6F89403
:10234000DEBF0FBECDBF80916E0290916F02A09153
:102350007002B09171029A83898389819A81892B55
:1023600009F431C180917202882369F480916E0270
:1023700090916F02A0917002B0917102892B8A2B0B
:102380008B2B09F420C180918602909187020297DD
:1023900009F019C180919002882309F014C1898144
:1023A0009A81FC0180819181A281B3818B839C837E
:1023B000AD83BE8380918C02882309F4F0C08091A4
:1023C0007F0290918002892B31F080917F02909161
:1023D0008002029719F481E090E002C080E090E072
:1023E0008F8380917F0290918002019731F08091DC
:1023F0007F0290918002029719F481E090E002C080
:1024000080E090E088878F81882309F462C0809102
:10241000730290917402A0917502B09176029C01B2
:10242000AD016B817C818D819E810E949E518823AC
:10243000B4F08091880290918902A0918A02B091B3
:102440008B02209173023091740240917502509179
:102450007602BC01CD010E948050882344F1809116
:10246000730290917402A0917502B09176029C0162
:10247000AD016B817C818D819E810E949E511816D9
:1024800044F58091880290918902A0918A02B091CE
:102490008B02209173023091740240917502509129
:1024A0007602BC01CD010E948050882391F4809176
:1024B0007B0290917C02A0917D02B0917E02892BDB
:1024C0008A2B8B2B19F481E080938F0281E080931B
:1024D00090028885882309F462C0809173029091EC
:1024E0007402A0917502B09176029C01AD016B81DE
:1024F0007C818D819E810E9480508823B4F48091DC
:10250000880290918902A0918A02B0918B02209159
:102510007302309174024091750250917602BC01B1
:10252000CD010E949E51882344F5809173029091C1
:102530007402A0917502B09176029C01AD016B818D
:102540007C818D819E810E948050882341F58091FD
:10255000880290918902A0918A02B0918B02209109
:102560007302309174024091750250917602BC0161
:10257000CD010E949E51181694F480917B02909197
:102580007C02A0917D02B0917E02892B8A2B8B2B3D
:1025900019F481E080938F0281E080939002909102
:1025A000900281E0992309F080E080938C028B8176
:1025B0009C81AD81BE818093880290938902A09313
:1025C0008A02B0938B02000028960FB6F894DEBF03
:1025D0000FBECDBFDF91CF910895CF93DF931F92B0
:1025E000CDB7DEB719828091860290918702892B40
:1025F000C9F41092810210929002809114018823F4
:1026000071F182E090E090938702809386021092AD
:1026100014018091820290918302892B01F581E05F
:1026200089831DC01092140180918102882349F092
:1026300010928F02109287021092860210928102ED
:102640000EC08091820290918302892B19F481E05F
:10265000898305C0809190028983109290028091B5
:1026600086029091870282309105F9F083309105BE
:1026700030F4009761F0019709F44CC1AEC183308A
:10268000910509F4EEC0049709F46AC0A6C18091CF
:102690001401882309F4ACC182E090E09093870292
:1026A0008093860210921401A3C18981882309F4C2
:1026B000A1C180917B0290917C02A0917D02B0919A
:1026C0007E02181619061A061B06ECF48091820287
:1026D000909183020197B9F480917B0290917C02E2
:1026E000A0917D02B0917E0280939102909392021C
:1026F000A0939302B093940283E090E090938702BA
:102700008093860277C18091100190911101A09170
:102710001201B0911301892B8A2B8B2BD1F081E010
:1027200080938F028091100190911101A09112016C
:10273000B09113018093910290939202A09393021F
:10274000B093940284E090E0909387028093860295
:1027500051C110928F0210928702109286024AC1D4
:102760008091910290919202A0919302B091940273
:10277000892B8A2B8B2B99F0809191029091920258
:10278000A0919302B09194020197A109B10980939D
:10279000910290939202A0939302B093940280913D
:1027A000910290919202A0919302B0919402892B90
:1027B0008A2B8B2B09F020C1809184029091850295
:1027C000019739F410928F021092870210928602BC
:1027D00013C18091770290917802A0917902B09113
:1027E0007A02892B8A2B8B2BC9F010928F02809151
:1027F000770290917802A0917902B0917A02809349
:10280000910290939202A0939302B093940281E07C
:1028100090E09093870280938602EEC0898188239E
:10282000B9F08091100190911101A0911201B09125
:1028300013018093910290939202A0939302B0931C
:10284000940284E090E09093870280938602D4C043
:1028500010928F0282E090E090938702809386022C
:10286000CBC08091910290919202A0919302B0917D
:102870009402892B8A2B8B2B99F080919102909155
:102880009202A0919302B09194020197A109B1091B
:102890008093910290939202A0939302B09394023A
:1028A0008091910290919202A0919302B091940232
:1028B000892B8A2B8B2B09F0A1C08091100190915C
:1028C0001101A0911201B0911301892B8A2B8B2B3E
:1028D000D1F081E080938F028091100190911101DD
:1028E000A0911201B09113018093910290939202F2
:1028F000A0939302B093940284E090E090938702B7
:10290000809386027BC010928F02109287021092F1
:10291000860274C08091910290919202A0919302DC
:10292000B0919402892B8A2B8B2B99F08091910284
:1029300090919202A0919302B09194020197A10903
:10294000B1098093910290939202A0939302B09365
:1029500094028091910290919202A0919302B09181
:102960009402892B8A2B8B2B09F04AC089818823FA
:1029700069F18091100190911101A0911201B09123
:102980001301892B8A2B8B2BD1F081E080938F024E
:102990008091100190911101A0911201B091130149
:1029A0008093910290939202A0939302B093940229
:1029B00084E090E0909387028093860221C0109279
:1029C0008F0210928702109286021AC082E090E075
:1029D000909387028093860213C010928F02109208
:1029E000900210928102109287021092860209C012
:1029F000000007C0000005C0000003C0000001C0C7
:102A0000000000000F90DF91CF910895CF93DF93E6
:102A1000CDB7DEB7109288021092890210928A0216
:102A200010928B0210928C0280918202909183020C
:102A300090938E0280938D0210928F0210929002DA
:102A400010929102109292021092930210929402AC
:102A5000109287021092860280E090E0DF91CF9181
:102A60000895CF93DF9300D01F92CDB7DEB79B833D
:102A70008A838A819B81892B09F05BC02091820225
:102A80003091830280918D0290918E0241E028174F
:102A9000390709F440E049838091820290918302D2
:102AA00090938E0280938D028981882381F0109209
:102AB0008F02109290021092910210929202109244
:102AC00093021092940210928702109286028091D3
:102AD000820290918302019761F580918602909124
:102AE0008702892B21F480911401882391F480912D
:102AF0008602909187020197E1F480919102909172
:102B00009202A0919302B09194020197A105B105A0
:102B100081F41092910210929202109293021092FC
:102B200094021092140182E090E0909387028093C7
:102B300086028091820290918302019751F48091E4
:102B40006C0290916D022A813B812817390709F4A4
:102B5000F0DB8A819B81892B21F43FDD1092960264
:102B600007C080919602882319F08091950202C0D7
:102B700080918F020F900F900F90DF91CF91089569
:102B8000CF93DF93CDB7DEB71092880210928902FF
:102B900010928A0210928B0210928C02109287027D
:102BA0001092860210928E0210928D0210926D0287
:102BB00010926C0210928F02109290021092910269
:102BC0001092920210929302109294021092950227
:102BD0001092960210926E0210926F021092700282
:102BE000109271021092720210927302109274028B
:102BF000109275021092760288EE93E0A0E0B0E0A9
:102C00008093100190931101A0931201B0931301CE
:102C100010927702109278021092790210927A0242
:102C200010927B0210927C0210927D0210927E0222
:102C30001092800210927F0281E080931401109222
:102C400081021092830210928202109285021092E9
:102C5000840280E090E0DF91CF910895CF93DF93DD
:102C6000CDB7DEB78091820290918302892B39F52E
:102C700080911401882359F080918102882339F4CE
:102C800081E08093950281E08093960218C0809144
:102C90008102282F30E09091140181E0992309F0FE
:102CA00080E0882F90E082239323892B31F01092CB
:102CB000950281E08093960202C010929602000075
:102CC000DF91CF910895CF93DF93CDB7DEB72C97E7
:102CD0000FB6F894DEBF0FBECDBF9E838D8378877D
:102CE0006F835A8749873C872B871A8219820E94F3
:102CF0003A3E9C838B838D819E81FC0180819181F2
:102D00000E941A418B859C8560E070E00E94A33D83
:102D10009C018F819885FC01318320830E948A3D2C
:102D20009C0189859A85FC01318320838F81988558
:102D3000FC0180819181892BE1F08F819885FC01D4
:102D4000208131818B819C81B9010E9470459C0159
:102D50008D819E81FC01318320838D819E81FC01C8
:102D600080819181892B49F486EF9FEF9A83898333
:102D700004C088EF9FEF9A83898389819A812C967A
:102D80000FB6F894DEBF0FBECDBFDF91CF9108958F
:102D9000CF93DF9300D000D000D0CDB7DEB79A83B9
:102DA00089837C836B835E834D8389819A81892BA0
:102DB00021F089819A810E941A418D819E81FC01B6
:102DC0001182108280E090E026960FB6F894DEBF64
:102DD0000FBECDBFDF91CF910895CF93DF9300D089
:102DE00000D000D0CDB7DEB79A8389837C836B8314
:102DF0005E834D838D819E8122E030E0FC01318332
:102E000020838FEF9FEF26960FB6F894DEBF0FBE9C
:102E1000CDBFDF91CF910895CF93DF9300D000D045
:102E2000CDB7DEB78B836C8385E090E09A8389838E
:102E30008B81813F18F01A82198229C08B81843ED0
:102E400040F08B81813F28F481E090E09A83898370
:102E50001EC08B81833D18F08B81833E48F08B81AF
:102E6000803C59F48C81882341F08C81833028F494
:102E700082E090E09A8389830AC08B81883C38F095
:102E80008B81833D20F483E090E09A83898389815C
:102E90009A810F900F900F900F90DF91CF9108952E
:102EA000CF93DF93CDB7DEB767970FB6F894DEBF49
:102EB0000FBECDBF998B888B7B8B6A8B5D8B4C8BC8
:102EC0003F8B2E8B888999899C838B838B819C81F6
:102ED000FC0180818D8319828D81803C49F48A892F
:102EE0009B89029728F08B819C81FC0181818983D9
:102EF0008091980290919902892B09F455C06981BB
:102F00008D818ADF9B878A871A828A859B850597B0
:102F1000C1F18A859B85880F991F82569D4FFC01C0
:102F2000808191819D878C871F861E868C859D85DB
:102F3000892B39F18D81882F90E02C853D85F90111
:102F400009959F878E8721E08E859F85892B09F4BF
:102F500020E02A838A818823A1F08E859F85FC0149
:102F6000228133818C899D89FC01318320838E8568
:102F70009F85FC01248135818E899F89FC013183E5
:102F800020838A81882309F053C08C899D892DEE86
:102F900036E1FC01318320838E899F8920E838E166
:102FA000FC013183208344C08D818F3FA9F580913E
:102FB0009E0290919F029F838E838C899D89FC0144
:102FC000118210828E899F89FC01118210828E816C
:102FD0009F81892B69F12E813F818FEF90E0F9016C
:102FE00009959987888788859985892B09F188852E
:102FF0009985FC01228133818C899D89FC01318373
:10300000208388859985FC01248135818E899F895B
:10301000FC01318320830CC08C899D8928EC36E12A
:10302000FC01318320838E899F89FC0111821082EB
:10303000000067960FB6F894DEBF0FBECDBFDF91DC
:10304000CF910895CF93DF93CDB7DEB780919802EB
:1030500090919902DF91CF910895CF93DF9300D0A3
:10306000CDB7DEB79A83898389819A81909399023B
:103070008093980200000F900F90DF91CF910895F8
:10308000CF93DF93CDB7DEB780919A02DF91CF91D6
:103090000895CF93DF931F92CDB7DEB789839091C8
:1030A0009A028981892B80939A0200000F90DF9108
:1030B000CF910895CF93DF931F92CDB7DEB7898369
:1030C0008981809590919A02892380939A020000C9
:1030D0000F90DF91CF910895CF93DF93CDB7DEB7F7
:1030E00080919B02DF91CF910895CF93DF93CDB76D
:1030F000DEB780919C0290919D02DF91CF9108955F
:10310000CF93DF93CDB7DEB72A970FB6F894DEBF23
:103110000FBECDBF9E838D8378876F835A87498783
:103120008D819E81892B51F48F8198859C838B831F
:103130008B819C812FEFFC0120838BC08F81988530
:103140009A83898389819A812EEFFC0120838D8166
:103150009E81092E000CAA0BBB0B0F96A11DB11D61
:103160008F309105A105B10508F06DC08554974ECB
:10317000FC010C9456641D19171911190B19051926
:10318000F918FF18F318ED18E718E218D018CA1844
:10319000D618DC1889819A8120E3FC01218359C06B
:1031A00089819A8129E2FC01218353C089819A8116
:1031B00022E2FC0121834DC089819A8120E2FC0139
:1031C000218347C089819A81FC01118242C0898193
:1031D0009A8123E2FC0121833CC089819A8121E20A
:1031E000FC01218336C089819A8121E1FC01218380
:1031F00030C089819A8127E2FC0121832AC089811C
:103200009A812AE2FC01218324C089819A8120E1EC
:10321000FC0121831EC089819A8124E2FC01218363
:1032200018C089819A8128E2FC01218312C089811A
:103230009A8126E2FC0121830CC089819A8121E3D5
:10324000FC01218306C089819A8120E2FC0121834F
:1032500000C000002A960FB6F894DEBF0FBECDBFA7
:10326000DF91CF910895CF93DF93CDB7DEB72A9743
:103270000FB6F894DEBF0FBECDBF9E838D837887D7
:103280006F835A8749871A8219828F819885892B83
:10329000D9F11C821B821C821B822BC02B813C819A
:1032A000C901880F991F820F931F880F991F9C01D6
:1032B0008F819885820F931FFC01808191812D81E0
:1032C0003E812817390781F42B813C81C901880F81
:1032D000991F820F931F880F991F9C018F819885DA
:1032E000820F931F9A8389838B819C8101969C8393
:1032F0008B832B813C8189859A852817390720F497
:1033000089819A81892B51F289819A812A960FB6F7
:10331000F894DEBF0FBECDBFDF91CF910895CF935C
:10332000DF9300D000D0CDB7DEB79A8389837C834A
:103330006B8380919702882319F084EF9FEF1BC065
:1033400052D55DD590939F0280939E020E94923049
:103350000E94AA309093A3028093A2020E947C391B
:103360000E9487399093A1028093A00281E080930C
:10337000970280E090E00F900F900F900F90DF91F8
:10338000CF910895EF92FF920F931F93CF93DF9306
:10339000CDB7DEB764970FB6F894DEBF0FBECDBFD2
:1033A0001A8219821C821B8218861F821A8619862D
:1033B0001C861B861E861D86188A1F861E821D82FD
:1033C0001A8A198A1C8A1B8A80919702882319F409
:1033D00087EF9FEFC3C0BE01635F7F4F9E01255FF4
:1033E0003F4FAE01475F5F4FCE0107968B01BC0197
:1033F00080E090E00E94E83C9A83898389819A81E9
:10340000892B49F089819A81049629F089819A81D2
:10341000059609F096C08F819885892B59F02B85E8
:103420003C858D859E85280F391F89859A85821751
:10343000930728F488EF9FEF9A83898385C02F81B3
:1034400038858B859C85820F931F9E838D836D8528
:103450007E859E012D5E3F4FAE014F5E5F4F8D8199
:103460009E811EDD89899A89892B29F484EF9FEF3B
:103470009A83898369C029893A896B857C858F8184
:103480009885AE01415F5F4FF90109959C838B835D
:103490008B899C89892B09F451C08F859889892B48
:1034A00009F44CC01A8219822D853E858F85988932
:1034B0002817390768F42F853889AE01455F5F4FBB
:1034C000BE01675F7F4FCE010796FDDB9A8389833C
:1034D0002D853E858D819E81A90160E070E00E946E
:1034E000B16489819A81892B49F52F8138858B8533
:1034F0009C85820F931F9E838D832B893C894F85EA
:1035000058896D817E818B819C81F90109956F8538
:1035100078894B855C8529853A858F8198857B01E3
:103520008A01AC016FEF7FEF81E090E00E948E3B5B
:103530009A83898389819A81892B29F489819A8147
:103540000DC0000001C000008F819885892B21F0FB
:103550008F8198850E941A4189819A8164960FB65D
:10356000F894DEBF0FBECDBFDF91CF911F910F91B9
:10357000FF90EF900895CF93DF93CDB7DEB72897F4
:103580000FB6F894DEBF0FBECDBF9C838B834D83F7
:103590005E836F8378871A821982809197028823CD
:1035A00019F487EF9FEF10C08D819E81AF81B885A0
:1035B000EB81FC8120E0AC01BD01CF010E94C8334A
:1035C0009A83898389819A8128960FB6F894DEBF01
:1035D0000FBECDBFDF91CF910895CF93DF93CDB7CD
:1035E000DEB78091980290919902DF91CF91089572
:1035F000CF93DF93CDB7DEB70E94A5390E94F9378C
:103600001CD448E050E060E070E08EE992E00E9457
:10361000B1641092970280E090E0DF91CF9108951D
:10362000CF93DF9300D000D000D0CDB7DEB76B834F
:103630007C838D839E838B819C81AD81BE81BC0107
:10364000CD010E9486349A83898389819A81269646
:103650000FB6F894DEBF0FBECDBFDF91CF910895B6
:10366000CF93DF9300D000D01F92CDB7DEB79D83FC
:103670008C8381E089838C819D81298140E050E0A9
:10368000BA010E94C8339B838A838A819B810F90F1
:103690000F900F900F900F90DF91CF910895CF93DF
:1036A000DF9300D000D01F92CDB7DEB78D8381E0CD
:1036B00090E09A8389830E94FC3D9C838B838D815B
:1036C000282F30E08B819C8149815A81BA010E9468
:1036D0002064CB0141E02817390708F040E0842F2F
:1036E0000F900F900F900F900F90DF91CF91089552
:1036F000CF93DF9300D000D01F92CDB7DEB79C836D
:103700008B836D83A6D39A8389838091AB02482FE4
:1037100050E029813A818B819C81B9010E94A86483
:1037200000000F900F900F900F900F90DF91CF91AE
:103730000895CF93DF93CDB7DEB72D970FB6F894EA
:10374000DEBF0FBECDBF998788877B876A875D877D
:103750004C871A821982288539858A859B85820F34
:10376000931F9C838B838B819C819E838D831F827F
:103770000E94A4368F838F81882351F48C859D8588
:1037800022E030E0FC013183208385EF9FEF2DC0E4
:103790008D819E81FC018181882331F08D819E8104
:1037A000FC018181813019F481E090E002C080E069
:1037B00090E08F838F81882351F48C859D8522E052
:1037C00030E0FC01318320838EEF9FEF0EC081E05B
:1037D00090E043DC1A8219828C859D8528E030E0D8
:1037E000FC013183208389819A812D960FB6F8944C
:1037F000DEBF0FBECDBFDF91CF910895CF93DF9392
:10380000CDB7DEB728970FB6F894DEBF0FBECDBF99
:103810009C838B837E836D8358874F838B819C81B0
:10382000892BA9F58D819E819A83898389819A81CB
:1038300048E050E060E070E00E94B16489819A81C4
:103840002FEFFC01208325E089819A81FC012183EF
:1038500020E089819A81FC0122830E94FC3D282F6F
:1038600089819A81FC0123830E94F33D9C01898117
:103870009A81FC013583248389819A8121E0FC01AE
:10388000268389819A8121E0FC01278308C04F812A
:1038900058852D813E818B819C81B90131DC0000EE
:1038A00028960FB6F894DEBF0FBECDBFDF91CF9143
:1038B0000895CF93DF9300D000D000D01F92CDB7F2
:1038C000DEB79B838A837D836C835F834E8381E035
:1038D00089830E94A43689838981882351F48E814B
:1038E0009F8122E030E0FC013183208385EF9FEF50
:1038F0000CC080E090E0B1DB8E819F8121E030E060
:10390000FC013183208380E090E027960FB6F89485
:10391000DEBF0FBECDBFDF91CF910895CF93DF9370
:1039200000D000D000D0CDB7DEB79A8389837C83E6
:103930006B835E834D838D819E8126E030E0FC01A8
:103940003183208380E090E026960FB6F894DEBFA6
:103950000FBECDBFDF91CF910895CF93DF93CDB749
:10396000DEB728970FB6F894DEBF0FBECDBF9C839D
:103970008B837E836D8358874F838D819E819A834D
:10398000898389819A8146E050E060E070E00E947E
:10399000B16489819A812FEFFC01208371DB282F8C
:1039A00089819A81FC01218397DB282F89819A8163
:1039B000FC0122839ADB9C0189819A81FC01358379
:1039C0002483000028960FB6F894DEBF0FBECDBF4B
:1039D000DF91CF910895CF93DF9300D000D000D036
:1039E0001F92CDB7DEB79B838A837D836C835F8311
:1039F0004E8319820E94873689838981882321F02A
:103A00000E94203E0E9498368E819F8122E030E005
:103A1000FC01318320838BEF9FEF27960FB6F8943C
:103A2000DEBF0FBECDBFDF91CF910895CF93DF935F
:103A3000CDB7DEB72D970FB6F894DEBF0FBECDBF62
:103A4000998788877B876A875D874C871A82198266
:103A5000288539858A859B85820F931F9C838B835C
:103A60008B819C819E838D831F828D819E81FC0131
:103A700023818D819E81FC0184819581A681B781FE
:103A8000422FBC01CD01F4D18F838F81882351F463
:103A90008C859D8522E030E0FC013183208384EF1A
:103AA0009FEF09C08C859D8521E030E0FC013183CA
:103AB000208389819A812D960FB6F894DEBF0FBEC0
:103AC000CDBFDF91CF910895CF93DF93CDB7DEB710
:103AD0002F970FB6F894DEBF0FBECDBF9B878A87A6
:103AE0007D876C875F874E871A8219822A853B857E
:103AF0008C859D85820F931F9C838B838B819C81FA
:103B00009E838D831F82A5D1998788878D819E8111
:103B1000FC018181C4DD8F838F81882351F48E85E0
:103B20009F8522E030E0FC01318320838EEF9FEF00
:103B300022C088859985892B51F48E859F8522E046
:103B400030E0FC013183208384EF9FEF14C08D812E
:103B50009E81FC0181818093AB028091AB02882F12
:103B600090E09C012F5F3F4F8E859F85FC01318344
:103B7000208389819A812F960FB6F894DEBF0FBEFD
:103B8000CDBFDF91CF910895CF93DF93CDB7DEB74F
:103B90002D970FB6F894DEBF0FBECDBF99878887EB
:103BA0007B876A875D874C8788859985892B91F506
:103BB00050D19A8389838A859B859C838B838B8153
:103BC0009C8141E050E060E070E00E94B1648B8134
:103BD0009C812FEFFC01208389819A81892B11F12F
:103BE0008091AB02882F90E001962C853D852817A7
:103BF0003907C1F48A859B8501969E838D831F8238
:103C00008D819E816F8174DD8091AB0262D11092B3
:103C1000AB0208C04C855D852A853B8588859985E2
:103C2000B9016EDA00002D960FB6F894DEBF0FBE14
:103C3000CDBFDF91CF910895CF93DF93CDB7DEB79E
:103C40002D970FB6F894DEBF0FBECDBF998788873A
:103C50007B876A875D874C871A8219822885398518
:103C60008A859B85820F931F9C838B838B819C818C
:103C70009E838D831F828D819E81FC0181810FDD5A
:103C80008F838F81882351F48C859D8522E030E0DD
:103C9000FC01318320838EEF9FEF31C08D819E81A7
:103CA000FC0123818D819E81FC0184819581A68107
:103CB000B781422FBC01CD01DBD08F838F81882358
:103CC00051F48C859D8522E030E0FC013183208316
:103CD00084EF9FEF14C08D819E81FC0181818093D0
:103CE000AB028091AB02882F90E09C012F5F3F4F89
:103CF0008C859D85FC013183208389819A812D9655
:103D00000FB6F894DEBF0FBECDBFDF91CF910895FF
:103D1000CF93DF93CDB7DEB72D970FB6F894DEBF04
:103D20000FBECDBF998788877B876A875D874C8761
:103D300088859985892B91F58CD09A8389838A858A
:103D40009B859C838B838B819C8141E050E060E06C
:103D500070E00E94B1648B819C812FEFFC01208375
:103D600089819A81892B11F18091AB02882F90E093
:103D700001962C853D8528173907C1F48A859B85D6
:103D800001969E838D831F828D819E816F81B0DC21
:103D90008091AB029ED01092AB0208C04C855D852D
:103DA0002A853B8588859985B901AAD900002D9679
:103DB0000FB6F894DEBF0FBECDBFDF91CF9108954F
:103DC000CF93DF9300D0CDB7DEB79A838983898103
:103DD0009A8147E050E068E371E045DA0F900F9078
:103DE000DF91CF910895CF93DF93CDB7DEB780EE0B
:103DF0009EE110D092D00000DF91CF910895CF9333
:103E0000DF93CDB7DEB78091AC029091AD02DF9128
:103E1000CF910895CF93DF9300D0CDB7DEB79A83CB
:103E2000898389819A819093AD028093AC020000CE
:103E30000F900F90DF91CF910895CF93DF93CDB77F
:103E4000DEB773D080E090E0E5DF0000DF91CF9136
:103E50000895CF93DF93CDB7DEB78091A6029091FE
:103E6000A702A091A802B091A902DF91CF91089575
:103E7000CF93DF9300D000D01F92CDB7DEB7698318
:103E80007A838B839C834D838D81882351F4898130
:103E90009A81AB81BC81892B8A2B8B2B11F480E01A
:103EA00010C089819A81AB81BC818093A6029093D6
:103EB000A702A093A802B093A9028D818093AA02C1
:103EC00081E00F900F900F900F900F90DF91CF91A6
:103ED0000895CF93DF931F92CDB7DEB789832091EA
:103EE000A6023091A7024091A8025091A9028981AF
:103EF000882F90E0A0E0B0E0820F931FA41FB51FB1
:103F00008093A6029093A702A093A802B093A9025F
:103F100000000F90DF91CF910895CF93DF93CDB73D
:103F2000DEB70000DF91CF910895CF93DF93CDB737
:103F3000DEB70000DF91CF910895CF93DF9300D0DB
:103F40001F92CDB7DEB79B838A831982F894809144
:103F5000B4029091B50221E0892B09F020E0298379
:103F60008981882309F4789489810F900F900F90AC
:103F7000DF91CF910895CF93DF9300D0CDB7DEB717
:103F80009A838983789400000F900F90DF91CF91EE
:103F90000895CF93DF9300D0CDB7DEB79A8389839E
:103FA000F8948091B4029091B50201969093B50275
:103FB0008093B402789400000F900F90DF91CF911E
:103FC0000895CF93DF9300D0CDB7DEB79A8389836E
:103FD000F8948091B4029091B50201979093B50244
:103FE0008093B402789400000F900F90DF91CF91EE
:103FF0000895CF93DF9300D0CDB7DEB79A8389833E
:104000002091AE023091AF0249815A8163E1649FF1
:10401000C001659F900D1124820F931FFC018381C5
:104020009481029799F02091AE023091AF024981BC
:104030005A8163E1649FC001659F900D1124820F36
:10404000931FFC0183819481039719F481E090E030
:1040500002C080E090E00F900F90DF91CF91089523
:10406000CF93DF9300D01F92CDB7DEB719821B82AA
:104070001A821B821A8209C08A819B81BADF8983D6
:104080008A819B8101969B838A838091B002909163
:10409000B1022A813B812817390718F489818823C6
:1040A00059F381E09981992309F080E00F900F90F6
:1040B0000F90DF91CF910895CF93DF9300D000D080
:1040C0001F92CDB7DEB79B838A836C834D8380912B
:1040D000AE029091AF02892B09F477C08091B002B3
:1040E0009091B1022A813B812817390708F06DC0F1
:1040F0002091AE023091AF024A815B8163E1649FFF
:10410000C001659F900D1124820F931FFC018081D7
:104110009181892B09F459C02091AE023091AF02F0
:104120004A815B8163E1649FC001659F900D11240A
:10413000820F931FFC0182819C81981708F045C073
:104140002091AE023091AF024A815B8163E1649FAE
:10415000C001659F900D1124820F931FFC012081E7
:1041600031818C81482F50E06DE0649FC001659FD4
:10417000900D1124820F931FFC0180819181892B66
:1041800021F12091AE023091AF024A815B8163E15F
:10419000649FC001659F900D1124820F931FFC0145
:1041A000208131818C81482F50E06DE0649FC001F7
:1041B000659F900D1124820F931FFC0182819D81C8
:1041C000981718F481E090E002C080E090E08983C5
:1041D00089810F900F900F900F900F90DF91CF91EA
:1041E0000895CF93DF93CDB7DEB729970FB6F89434
:1041F000DEBF0FBECDBF8C836D832E833F83488788
:10420000598719828D81882F90E09B838A838C81C6
:104210008F3F41F48A819B818F3F910509F010F413
:1042200081E08983898129960FB6F894DEBF0FBE9D
:10423000CDBFDF91CF910895CF93DF931F92CDB77C
:10424000DEB789838981882F90E08F7E21E0892BDA
:1042500009F020E0822F0F90DF91CF910895CF9346
:10426000DF9300D0CDB7DEB78A8319828A81882395
:1042700031F08A81813019F08A81823011F481E035
:10428000898389810F900F90DF91CF910895CF930B
:10429000DF9300D0CDB7DEB78A8319828A81882365
:1042A00031F08A81813019F08A81823011F481E005
:1042B000898389810F900F90DF91CF910895CF93DB
:1042C000DF93CDB7DEB781E0DF91CF910895CF9333
:1042D000DF9300D01F92CDB7DEB79B838A832091F6
:1042E000AE023091AF024A815B8163E1649FC001FD
:1042F000659F900D1124820F931FFC0183858230EE
:10430000D9F42091AE023091AF024A815B8163E122
:10431000649FC001659F900D1124820F931FFC01C3
:104320002581368180911D0190911E012817390742
:1043300019F081E090E002C080E090E089838981FB
:10434000882339F08A819B81892B19F481E090E0E0
:1043500002C080E090E0898389810F900F900F90D8
:10436000DF91CF910895CF93DF9300D000D000D09C
:104370001F92CDB7DEB79E838D836F838D819E8123
:10438000FC01208131818F81482F50E06DE0649FD6
:10439000C001659F900D1124820F931F9C838B8316
:1043A0008B819C81FC01438154818D819E81FC0124
:1043B00025853685429FC001439F900D529F900DE9
:1043C000112401969A8389838F81882379F48D81C2
:1043D0009E81FC018781882F90E080719927892B2D
:1043E00029F089819A8104969A83898389819A81A7
:1043F00027960FB6F894DEBF0FBECDBFDF91CF91E9
:104400000895CF93DF93CDB7DEB72B970FB6F8940F
:10441000DEBF0FBECDBF9B878A871D821C821A829A
:1044200019821B821B821EC08A859B856B819BDF44
:104430009F838E83198618868E819F8161E070E04C
:104440000E94A33D998788872885398589819A812B
:104450008217930720F4888599859A8389838B81B5
:104460008F5F8B838A859B85FC0182819B81981756
:10447000D8F28A859B859C012F5E3F4F8A859B855C
:10448000FC018281882F90E0880F991FBC018981EF
:104490009A81A9010E9419429D838C838C819D8100
:1044A000892B39F08A859B852FEF3FEFFC01328BFA
:1044B000218B8C819D812B960FB6F894DEBF0FBEA9
:1044C000CDBFDF91CF910895CF93DF9300D0CDB7CB
:1044D000DEB79A83898389819A81FC0181899289D7
:1044E000019639F089819A81FC01818992890E9423
:1044F000BB4389819A812FEF3FEFFC01328B218BE7
:1045000000000F900F90DF91CF910895CF93DF932C
:10451000CDB7DEB761970FB6F894DEBF0FBECDBF43
:104520009D878C877F876E87598B488B1A8219826B
:104530002C853D858E859F85820F931F9C838B8361
:104540008B819C819E838D838D819E81FC018281E4
:10455000938198878F838D819E81FC0184818987D7
:104560008D819E81FC0185818A871B868F8198853C
:104570004A856985A1DD8B878B85882351F48889DD
:10458000998922E030E0FC01318320838EEF9FEF98
:104590002BC08F8198852DDD982F81E0992309F01C
:1045A00080E08B878B85882351F48889998922E064
:1045B00030E0FC013183208388EF9FEF15C08F81AD
:1045C000988590931A0180931901898580931B0126
:1045D0008A8580931C018889998921E030E0FC015B
:1045E0003183208389819A8161960FB6F894DEBF6A
:1045F0000FBECDBFDF91CF910895CF93DF93CDB79D
:10460000DEB763970FB6F894DEBF0FBECDBF9F87AE
:104610008E87798B688B5B8B4A8B1A8219822E85E9
:104620003F8588899989820F931F9C838B838B8117
:104630009C819E838D838091190190911A019887A6
:104640008F8380911B01898780911C018A871C863A
:104650001B861D868F8198854A8569852DDD8D870E
:104660008D85882351F48A899B8922E030E0FC0102
:10467000318320838AEF9FEF9AC08F819885B9DCC0
:10468000982F81E0992309F080E08D878D8588231C
:1046900051F48A899B8922E030E0FC013183208338
:1046A00088EF9FEF84C08D819E81FC01848195817C
:1046B000A681B7812D813E81F90162812D813E81E4
:1046C000F90171819C01AD01872F8BDD8D878D856F
:1046D000882351F48A899B8922E030E0FC013183F0
:1046E00020838EEF9FEF63C02091AE023091AF0226
:1046F0004F81588563E1649FC001659F900D11242F
:10470000820F931FFC01208131818985482F50E061
:104710006DE0649FC001659F900D1124820F931F6F
:10472000FC01408151818A85282F30E0C901880F22
:10473000991F880F991F880F991F821B930B840F55
:10474000951F9C878B878D819E81FC0121818B85A4
:104750009C85FC0120838D819E81FC0122818B85BB
:104760009C85FC0121838D819E81FC0123818B85A9
:104770009C85FC0122838D819E81FC018481958131
:10478000A681B7812B853C85F90183839483A5831A
:10479000B68380911C018F5F80931C018A899B895D
:1047A00021E030E0FC013183208389819A81639686
:1047B0000FB6F894DEBF0FBECDBFDF91CF91089545
:1047C000CF93DF93CDB7DEB72F970FB6F894DEBF48
:1047D0000FBECDBF9B878A877D876C875F874E879B
:1047E0001A8219822A853B858C859D85820F931FAD
:1047F0009C838B838B819C819E838D8318861F82F3
:1048000019868091AE029091AF02892B79F08D814B
:104810009E81FC01228133818091B0029091B1028E
:104820002817390718F481E090E002C080E090E09A
:1048300089878985882351F48E859F8522E030E021
:10484000FC01318320838EEF9FEFA3C02091AE0245
:104850003091AF028D819E81FC014281538163E1E1
:10486000649FC001659F900D1124820F931F98874C
:104870008F838D819E81FC0182819381BADB982F89
:1048800081E0992309F080E089878985882351F4A4
:104890008E859F8522E030E0FC013183208388EF04
:1048A0009FEF77C08D819E81FC018481958121E0FD
:1048B0008038910508F020E029878985882351F404
:1048C0008E859F8522E030E0FC01318320838EEFCE
:1048D0009FEF5FC08D819E81FC01978181E09923CC
:1048E00009F080E089878985882351F48E859F852A
:1048F00022E030E0FC01318320838EEF9FEF49C03E
:104900008D819E81FC01818197DC8987898588233F
:1049100051F48E859F8522E030E0FC0131832083B5
:1049200086EF9FEF36C08D819E81FC0121818F81B2
:104930009885FC0127838D819E81FC01248135812E
:104940008F819885FC01368325838D819E81FC01B2
:1049500026818F819885FC0120878D819E81FC01B5
:1049600027818F819885FC0121878F819885FC01A3
:104970008085823028F48F81988521E0FC01208792
:104980008E859F8521E030E0FC0131832083898181
:104990009A812F960FB6F894DEBF0FBECDBFDF9180
:1049A000CF9108950F931F93CF93DF93CDB7DEB7C9
:1049B0006C970FB6F894DEBF0FBECDBF988F8F8B6C
:1049C0007A8F698F5C8F4B8F1B861A862F89388D63
:1049D000898D9A8D820F931F9D878C878C859D85ED
:1049E0009F878E87198A188A8E859F85FC01828110
:1049F0009381CC01A0E0B0E08A8B9B8BAC8BBD8B0C
:104A000019821E8A8091AE029091AF02892B99F093
:104A10008091B0029091B102CC01A0E0B0E02A896F
:104A20003B894C895D89281739074A075B071CF4C5
:104A300081E090E002C080E090E089838981882352
:104A400051F48B8D9C8D22E030E0FC01318320837A
:104A50008EEF9FEF40C28A899B89AC89BD89809384
:104A6000150190931601A0931701B093180120919E
:104A7000AE023091AF024A895B8963E1649FC00155
:104A8000659F900D1124820F931F998B888B8E85C3
:104A90009F85FC018181E3DB89838981882351F42F
:104AA0008B8D9C8D22E030E0FC013183208386EFEA
:104AB0009FEF11C204DC882309F47DC0888999899D
:104AC000FC0183819481892B09F075C088899989BB
:104AD000FC018781882F90E082709927892B81F1D2
:104AE00088899989FC0180819181892B91F080913D
:104AF000B302282F30E088899989FC018281882FB0
:104B000090E0820F931F813891051CF481E090E0C2
:104B100002C080E090E089838981882309F43EC047
:104B20002091B30288899989FC0122872091B302E0
:104B300088899989FC018281820F8093B3022EC0FB
:104B400088899989FC0180819181892B91F08091DC
:104B5000B202282F30E088899989FC018281882F50
:104B600090E0820F931F8D3F91051CF481E090E04F
:104B700002C080E090E089838981882379F02091C8
:104B8000B20288899989FC0122872091B202888922
:104B90009989FC018281820F8093B20289818823E6
:104BA00051F48B8D9C8D22E030E0FC013183208319
:104BB00087EF9FEF90C18E859F85FC0181818130B9
:104BC00039F08E859F85FC018181823009F0CBC050
:104BD0001B821A8281E089831B821A82B5C01D82E2
:104BE0001C821F821E821D821C822EC08889998988
:104BF000FC01208131814A815B816DE0649FC001AD
:104C0000659F900D1124820F931FFC0140815181FB
:104C10002C813D81C901880F991F880F991F880F2A
:104C2000991F821B930B840F951FFC018181882F94
:104C300090E02E813F81820F931F9F838E838C8112
:104C40009D8101969D838C8388899989FC012081AF
:104C500031814A815B816DE0649FC001659F900D49
:104C60001124820F931FFC018281882F90E02C81F8
:104C70003D81281739070CF4B9CF8A819B81892B94
:104C800021F588899989FC018781882F90E08071BE
:104C90009927892BD1F088899989FC01458556850A
:104CA0002E813F81429FC001439F900D529F900DE6
:104CB00011248C010B5F1F4F0E94F33D21E08017F0
:104CC000910708F420E0298319C088899989FC019B
:104CD000458556852E813F81429FC001439F900D9F
:104CE000529F900D11248C010F5F1F4F0E94F33DC6
:104CF00021E08017910708F420E029838981882327
:104D000051F48B8D9C8D22E030E0FC0131832083B7
:104D100087EF9FEFE0C088899989FC01208131816C
:104D20004A815B816DE0649FC001659F900D1124F5
:104D3000820F931F2E813F81FC01348323838A815C
:104D40009B8101969B838A8388899989FC01828152
:104D5000882F90E02A813B812817390724F4898124
:104D6000882309F03CCF88899989FC018581968147
:104D7000E4D88E8B8E89882309F49EC01986188604
:104D80008E859F85FC018181882F90E0813091057F
:104D9000D1F08230910509F469C0892B09F071C006
:104DA0008889998921E030E0FC013483238358D934
:104DB000882309F463C081E090E00E942D1880E40C
:104DC0000E945A185BC088899989FC01818992895F
:104DD0000196C9F588899989FC01258136818091E0
:104DE0001D0190911E012817390799F48889998926
:104DF000AC014F5E5F4F20912101309122018091E3
:104E00001F0190912001B9010E94B44499878887BD
:104E10001AC08A899B89AC89BD89181619061A0699
:104E20001B068CF088899989FC0185819681892BE4
:104E300051F488899989E5DA9987888788899989D9
:104E4000FC01108A178688859985892BC9F4888981
:104E5000998923E030E0FC013483238382E090E0F1
:104E60000E942D1880E40E9449180AC088899989F7
:104E700022E030E0FC013483238303C0000001C042
:104E8000000088899989FC018581968174D88B8D71
:104E90009C8D22E030E0FC01318320838885998558
:104EA000892B51F08B8D9C8D22E030E0FC01318309
:104EB00020838DEF9FEF0FC08E89882351F48B8D57
:104EC0009C8D22E030E0FC013183208385EF9FEF51
:104ED00002C08A859B856C960FB6F894DEBF0FBE24
:104EE000CDBFDF91CF911F910F910895CF93DF93A5
:104EF000CDB7DEB728970FB6F894DEBF0FBECDBF93
:104F00009C838B837E836D8358874F838B819C81A9
:104F1000892B29F58D819E819A83898389819A8144
:104F20002FEFFC0120832091AE023091AF028091DF
:104F3000150190911601A0911701B0911801AC01D3
:104F400063E1649FC001659F900D1124820F931F40
:104F5000FC01228589819A81FC01218309C04F814E
:104F600058852D813E818B819C81B9010E948018DA
:104F7000000028960FB6F894DEBF0FBECDBFDF91BC
:104F8000CF910895CF93DF93CDB7DEB766970FB675
:104F9000F894DEBF0FBECDBF9A8B898B7C8B6B8B59
:104FA0005E8B4D8B18861F8229893A898B899C8953
:104FB000820F931F9A87898789859A859C878B871B
:104FC0001D861E8619821A821B821C828B859C85F7
:104FD000FC0181815CD98D878D85882351F48D8971
:104FE0009E8922E030E0FC013183208386EF9FEF31
:104FF00020C28091AE029091AF02892B49F080913E
:10500000B0029091B102892B19F081E090E002C0CA
:1050100080E090E08D878D85882351F48D899E896D
:1050200022E030E0FC01318320838EEF9FEF01C24C
:105030000E9487368E878E85882309F4EBC11E82F5
:105040001D82188A1F868B859C85FC018181882F93
:1050500090E08130910509F456C08230910509F441
:105060006CC1892B09F0BFC119821A821B821C8274
:1050700031C02091AE023091AF0249815A8163E183
:10508000649FC001659F900D1124820F931FFC0146
:1050900083819481892B99F02091AE023091AF02E7
:1050A00049815A8163E1649FC001659F900D11247D
:1050B000820F931F21E030E0FC0134832383898138
:1050C0009A81AB81BC810196A11DB11D89839A8310
:1050D000AB83BC838091B0029091B102CC01A0E07F
:1050E000B0E029813A814B815C81281739074A0752
:1050F0005B070CF4BECF81E090E00E942D1880E4A5
:105100000E945A1870C119821A821B821C82ACC07C
:105110002091AE023091AF0249815A8163E1649FD0
:10512000C001659F900D1124820F931FFC018381A4
:105130009481029709F08DC02091AE023091AF02A8
:1051400049815A8163E1649FC001659F900D1124DC
:10515000820F931FFC0181899289019609F079C021
:105160002091AE023091AF0249815A8163E1649F80
:10517000C001659F900D1124820F931FFC012581B2
:10518000368180911D0190911E0128173907F9F48D
:105190002091AE023091AF0249815A8163E1649F50
:1051A000C001659F900D1124820F931FAC014F5ECB
:1051B0005F4F209121013091220180911F01909138
:1051C0002001B9010E94B4449E838D8342C089812D
:1051D0009A81AB81BC81181619061A061B06CCF100
:1051E0002091AE023091AF0249815A8163E1649F00
:1051F000C001659F900D1124820F931FFC018581D2
:105200009681892B31F52091AE023091AF02498110
:105210005A8163E1649FC001659F900D1124820F44
:10522000931FEFD89E838D832091AE023091AF0201
:1052300049815A8163E1649FC001659F900D1124EB
:10524000820F931FFC01108A178689819A81988B9F
:105250008F8789819A81AB81BC810196A11DB11D87
:1052600089839A83AB83BC838091B0029091B10211
:10527000CC01A0E0B0E029813A814B815C81281704
:1052800039074A075B072CF48D819E81892B09F42D
:105290003FCF8D819E81892B09F0A2C019821A828D
:1052A0001B821C8238C02091AE023091AF0249812E
:1052B0005A8163E1649FC001659F900D1124820FA4
:1052C000931FFC01838194810297D1F42091AE0257
:1052D0003091AF0249815A8163E1649FC001659FAB
:1052E000900D1124820F931F23E030E0FC013483E2
:1052F000238382E090E00E942D1880E40E944918E8
:1053000089819A81AB81BC810196A11DB11D8983E0
:105310009A83AB83BC838091B0029091B102CC019F
:10532000A0E0B0E029813A814B815C8128173907E0
:105330004A075B070CF4B7CF53C019821A821B824D
:105340001C8231C02091AE023091AF0249815A8156
:1053500063E1649FC001659F900D1124820F931F2C
:10536000FC0183819481029799F42091AE023091DF
:10537000AF0249815A8163E1649FC001659F900D2E
:105380001124820F931F21E030E0FC01348323833A
:1053900089819A81AB81BC810196A11DB11D898350
:1053A0009A83AB83BC838091B0029091B102CC010F
:1053B000A0E0B0E029813A814B815C812817390750
:1053C0004A075B070CF4BECF0E943020882351F0BF
:1053D00081E090E00E942D1880E40E945A1802C0DB
:1053E000000001C000000E9498368D819E81892BAB
:1053F00051F08D899E8922E030E0FC0131832083C9
:105400008DEF9FEF16C08D899E8921E030E0FC0171
:10541000318320838E85882351F48D899E8922E0F3
:1054200030E0FC013183208385EF9FEF02C08F8144
:10543000988566960FB6F894DEBF0FBECDBFDF919C
:10544000CF910895CF93DF9300D000D000D0CDB797
:10545000DEB79A8389837C836B835E834D838D81E2
:105460009E8128E030E0FC013183208380E090E0E1
:1054700026960FB6F894DEBF0FBECDBFDF91CF9159
:105480000895CF93DF93CDB7DEB728970FB6F89482
:10549000DEBF0FBECDBF9C838B837E836D83588719
:1054A0004F838D819E819A83898389819A8148E087
:1054B00050E060E070E00E94B16489819A812FEF32
:1054C000FC01208389819A8121E1FC01218389816A
:1054D0009A812FEF3FEFFC013383228389819A81E8
:1054E00020E830E0FC013583248389819A81FC0126
:1054F000168289819A81FC011782000028960FB6D6
:10550000F894DEBF0FBECDBFDF91CF910895CF934A
:10551000DF9300D000D000D0CDB7DEB79A83898367
:105520007C836B835E834D838D819E8128E030E098
:10553000FC013183208380E090E026960FB6F8943A
:10554000DEBF0FBECDBFDF91CF910895CF93DF9324
:10555000CDB7DEB728970FB6F894DEBF0FBECDBF2C
:105560009C838B837E836D8358874F838D819E813F
:105570009A83898389819A8148E050E060E070E0F5
:105580000E94B16489819A812FEFFC012083898177
:105590009A8121E0FC01218389819A812FEFFC010E
:1055A000228389819A8121E0FC01238389819A8168
:1055B0002FEFFC01248389819A8124E3FC01258358
:1055C00089819A8121E030E0FC0137832683000045
:1055D00028960FB6F894DEBF0FBECDBFDF91CF91F6
:1055E0000895CF93DF93CDB7DEB729970FB6F89420
:1055F000DEBF0FBECDBF9D838C837F836E835987B3
:1056000048871A8219821B820E94A4368B838B8161
:10561000882351F48885998522E030E0FC013183AC
:10562000208385EF9FEF0DC081E090E00E942D1850
:105630008885998521E030E0FC01318320838981D0
:105640009A8129960FB6F894DEBF0FBECDBFDF91C9
:10565000CF910895CF93DF93CDB7DEB765970FB69F
:10566000F894DEBF0FBECDBF998B888B7B8B6A8B86
:105670005D8B4C8B1C821B82288939898A899B8986
:10568000820F931F9E838D838D819E8198878F8348
:105690008F819885FC0182819381CC01A0E0B0E0EC
:1056A00089879A87AB87BC871E861D861F861A82CC
:1056B00019828091AE029091AF0221E0892B09F00E
:1056C00020E02F878F85882351F48C899D8922E0E3
:1056D00030E0FC01318320838CEF9FEFC9C08985C6
:1056E0009A85AB85BC85181619061A061B065CF44C
:1056F00089859A85AB85BC850097A140B1051CF4CE
:1057000081E090E002C080E090E08F878F85882361
:1057100051F48C899D8922E030E0FC0131832083A3
:105720008EEF9FEFA5C089859A8543E1489F900140
:10573000499F300D1124C9010E946F409E878D87BB
:105740008D859E85892B51F48C899D8922E030E0DE
:10575000FC01318320838DEF9FEF8AC089859A8574
:1057600043E1489F9001499F300D11248D859E850E
:10577000A90160E070E00E94B1648D859E859093E0
:10578000AF028093AE0289859A859093B10280938F
:10579000B0021A82198253C029813A8143E1429FA3
:1057A000C001439F900D11242D853E85820F931FCC
:1057B0002FEF3FEFFC01328B218B29813A8143E1AE
:1057C000429FC001439F900D11242D853E85820F7D
:1057D000931FFC01138629813A8143E1429FC00156
:1057E000439F900D11242D853E85820F931F21E04C
:1057F000FC01248729813A8143E1429FC001439FF4
:10580000900D11242D853E85820F931F21E030E0FD
:10581000FC013687258729813A8143E1429FC001F7
:10582000439F900D11242D853E85820F931FFC010F
:10583000108A178689819A8101969A838983898142
:105840009A81092E000CAA0BBB0B29853A854B8542
:105850005C8582179307A407B5070CF49DCF8C894C
:105860009D8921E030E0FC01318320838B819C8184
:1058700065960FB6F894DEBF0FBECDBFDF91CF9116
:1058800008950F931F93CF93DF93CDB7DEB7609743
:105890000FB6F894DEBF0FBECDBF9C878B877E8787
:1058A0006D87588B4F871A8219822B853C858D8591
:1058B0009E85820F931F9C838B838B819C819E830B
:1058C0008D838D819E81FC018281938198878F8356
:1058D0008D819E81FC01848189871A868091AE0228
:1058E0009091AF0221E0892B09F420E02A878A8574
:1058F000882351F48F85988922E030E0FC013183C0
:1059000020838CEF9FEFC9C08091B0029091B102CB
:1059100041E02F8138852817390708F040E04A8791
:105920008A85882351F48F85988922E030E0FC0134
:10593000318320838EEF9FEFB0C08985882331F0BB
:1059400089858D3F18F481E090E002C080E090E00E
:105950008A878A85882351F48F85988922E030E0F0
:10596000FC01318320838EEF9FEF97C02091AE0220
:105970003091AF024F81588563E1649FC001659FFC
:10598000900D1124820F931FFC018081918121E0F1
:10599000892B09F020E02A878A85882351F48F8596
:1059A000988922E030E0FC01318320838CEF9FEF67
:1059B00074C08985882F90E02DE0289FB001299F31
:1059C000700D11242091AE023091AF024F815885A5
:1059D000E3E1E49FC001E59F900D11248901080FC8
:1059E000191FCB010E946F40F801918380832091A1
:1059F000AE023091AF024F81588563E1649FC001D0
:105A0000659F900D1124820F931FFC01808191816D
:105A1000892B51F48F85988922E030E0FC01318395
:105A200020838DEF9FEF39C08985882F90E02DE08E
:105A3000289FB001299F700D11242091AE02309152
:105A4000AF024F815885E3E1E49FC001E59F900DCF
:105A50001124820F931FFC0180819181AB0160E0D2
:105A600070E00E94B1642091AE023091AF024F818C
:105A7000588563E1649FC001659F900D1124820FDA
:105A8000931F2985FC0122838F85988921E030E0CE
:105A9000FC013183208389819A8160960FB6F89446
:105AA000DEBF0FBECDBFDF91CF911F910F91089543
:105AB0000F931F93CF93DF93CDB7DEB761970FB6E8
:105AC000F894DEBF0FBECDBF9D878C877F876E8722
:105AD000598B488B1A8219822C853D858E859F852E
